:04000000FBEFFFF023
:10000800FF7FFF7FFF7FFF7FFF7FFF7FFF7FFF7FF8
:10001800FF7FFF7FFF7FFF7FFF7FFF7FFF7FFF7FE8
:10002800FF7FFF7FFF7FFF7FFF7FFF7FFF7FFF7FD8
:10003800FF7FFF7FFF7FFF7FFF7FFF7FFF7FFF7FC8
:10004800FF7FFF7FFF7FFF7FFF7FFF7FFF7FFF7FB8
:10005800FF7FFF7FFF7FFF7FFF7FFF7FFF7FFF7FA8
:10006800FF7FFF7FFF7FFF7FFF7FFF7FFF7FFF7F98
:10007800FF7FFF7FFF7FFF7F4200FF7FFF7FFF7FC4
:10008800FF7FFF7FFF7FFF7FFF7FFF7FFF7FFF7F78
:10009800687CFF7FFF7FFF7F4200FF7FFF7FFF7F3E
:1000A800FF7FFF7FFF7FFF7FFF7FFF7FFF7FFF7F58
:1000B800FF7FFF7FFF7FFF7FFF7FFF7FFF7FFF7F48
:1000C800FF7FFF7FFF7FFF7FFF7FFF7FFF7FFF7F38
:1000D800FF7FFF7FFF7FFF7FFF7FFF7FFF7FFF7F28
:1000E8004200FF7FFF7FFF7FFF7FFF7FFF7FFF7F54
:1000F800FF7FFF7FFF7FFF7FFF7FFF7FFF7FFF7F08
:02010800FF00F6
:10FFD600000D0A4D455A5633302025322E33664DD4
:10FFE600487A0D0A00494E46004E414E00696E663B
:09FFF600006E616E006C660000F3
:020000040001F9
:108000005053E4008AE0A084043C80741EFEC0A2A9
:1080100084043C707504B017E6018B1E82048AC488
:108020008807FEC380E37F891E82045B58FBCF5321
:10803000A084043C0074F9FAA084043C7075088A9A
:10804000E0B037E6018AC4FEC8A284048B1E800417
:108050008A07FEC380E37F891E80045BFBC350E474
:1080600001240174FA58E600C3FCAC3C007406E835
:10807000ECFFE9F5FFC30D0A50524F434553534FF0
:10808000523A20004E45432056323028755044372E
:1080900030313038290D0A49742077696C6C2073AF
:1080A0006F6F6E206265207475726E656420383063
:1080B000383020656D756C6174696F6E206D6F640A
:1080C000652E0D0A00496E74656C20383038380D05
:1080D0000A536F7272792C2049742077696C6C2076
:1080E000736F6F6E206265206F7574206F662063FA
:1080F0006F6E74726F6C0D0A0052657475726E65E6
:108100006420746F206E6174697665206D6F64659C
:108110002E0D0A5468657265206973206E6F2063A6
:108120006F646520746F2072756E2C20736F2070E1
:108130006C656173652072657365742E0D0A00E8C5
:10814000EDFECFA08404CFE814FFCF8CC88ED88E6C
:10815000C08ED0BC0005C706EC033F81A3EE03C769
:1081600006F0034381A3F203C706F4034781A3F695
:1081700003C706F8030082A3FA03C706FC030080C6
:10818000A3FE03BA0100B000EEEEEEB040EEB9106F
:1081900000E2FEB04EEEB037EE32C0A28404B8006A
:1081A00004A38004A38204FBBE7680E8BBFEB80172
:1081B00001D5103C0B7408BEC580E8ACFEEBFEE8B0
:1081C000A7FE0FFFFEBEF980E89EFEEBFEFFFFFF5D
:1081D000FFFFFFFFFFFFFFFFFFFFFFFFFFFFFFFFAF
:1081E000FFFFFFFFFFFFFFFFFFFFFFFFFFFFFFFF9F
:1081F000FFFFFFFFFFFFFFFFFFFFFFFFFFFFFFFF8F
:10820000C31382EDEDFBC9EDEDFDC9EDEDFCFE0004
:10821000C9EDFD216605F9C31A82C32082C3958288
:10822000C32782EC8A6392210005F9C38D9E110554
:108230008506632100051A77231305C23682F9CD1E
:108240000687CDE28C32AA0532F905215D06237C32
:10825000B5CA5D827E472F77BE70CA4E822B115CF5
:1082600006CD9C88DA9E8211CEFF22AF0519225AD4
:1082700005CDE1862A5A0511EFFF1911F9057D9305
:108280006F7C9A67E521B682CD8193E1CD269A2154
:10829000A782CD8193316605CD0687C31F8621F362
:1082A00082CD8193C3A48220427974657320667263
:1082B00065650D0A0000494E54454C383038302071
:1082C00042415349432056657220342E37620D0ACD
:1082D000436F7079726967687420284329203139A7
:1082E0003738206279204D6963726F736F66740D41
:1082F0000A00004D656D6F72792073697A65206E92
:108300006F7420656E6F7567680D0A546865207319
:10831000797374656D2069732073746F7070656410
:108320002E0D0A00009B985F99B19803054192C8F1
:10833000956F92259B049C4097739B799C7F9CE052
:108340009CF59C1C96609D5105F3940B938D9502B2
:10835000951395829D1F9E239553955D95C54E441B
:10836000C64F52CE455854C4415441C94E5055543D
:10837000C4494DD2454144CC4554C74F544FD255C2
:108380004EC946D24553544F5245C74F535542D21A
:10839000455455524ED2454DD3544F50CF5554CFDE
:1083A0004ECE554C4CD7414954C44546D04F4B4511
:1083B000C44F4B45D3435245454ECC494E4553C31C
:1083C0004C53D749445448CD4F4E49544F52D3454E
:1083D00054D245534554D052494E54C34F4E54CCB9
:1083E000495354C34C454152C34C4F4144C353417C
:1083F0005645CE4557D4414228D44FC64ED350435C
:1084000028D448454ECE4F54D3544550ABADAAAFB7
:10841000DEC14E44CF52BEBDBCD3474EC94E54C13F
:108420004253D55352C65245C94E50D04F53D351E3
:1084300052D24E44CC4F47C55850C34F53D3494EE8
:10844000D4414EC1544ED045454BC445454BD04F09
:10845000494E54CC454ED3545224D6414CC153437B
:10846000C3485224C8455824C2494E24CC454654DA
:1084700024D24947485424CD49442480848A7789AA
:108480005C8ED18B638D9990928DE88B8E8B718BE6
:10849000608C408A7D8BAC8BD38B828AD495428C46
:1084A000C38ADA95779223966B9DD38B4F9D429D1D
:1084B000479D118254055705848CB08AE8882B8B20
:1084C000D38BD38BE086790D9A7941967C7F977C0C
:1084D000E0977F2E9B50F28F46F18F4E46534E52BF
:1084E000474F4446434F564F4D554C425344442FFB
:1084F000304944544D4F534C535354434E55464DBD
:108500004F4858424EC39582C3018BD300C9D60051
:108510006F7CDE006778DE00473E00C90000003552
:108520004ACA99391C76982295B3980ADD47985320
:10853000D199990A1A9F9865BCCD98D6773E9852E2
:10854000C74F80DB00C901FF1C00001400140000AD
:10855000000000C31988C30000C30000C300005D11
:1085600006FEFFFA05204572726F720020696E20C8
:10857000004F6B0D0A0000427265616B0021040020
:10858000397E23FE81C04E234623E569607AB3EB32
:10859000CA9785EBCD9C88010D00E1C809C3818590
:1085A000CDBA85C5E3C1CD9C887E02C80B2BC3A67E
:1085B00085E52ADA05060009093EE53ED0956F3EBD
:1085C000FF9CDAC9856739E1D81E0CC3E8852AC942
:1085D00005225C051E02011E14011E00011E12016F
:1085E0001E22011E0A011E18CD0687324505CDD573
:1085F0008C21DB84573E3FCDAD88197ECDAD88CD33
:10860000308ACDAD88216585CD81932A5C0511FE28
:10861000FFCD9C88CA27827CA53CC41E9A3EC1AF70
:10862000324505CDD58C217185CD819321FFFF2267
:108630005C05CD1988DA2C86CD308A3C3DCA2C8663
:10864000F5CD068BD5CD308747D1F1D2108AD5C56F
:10865000AF32CC05CD308AB7F5CDC086DA6586F16C
:10866000F5CAA78BB7C5D27C86EB2AD6051A0203BA
:1086700013CD9C88C26D86606922D605D1F1CAA34C
:10868000862AD605E3C109E5CDA085E122D605EB12
:1086900074D12323732372231161051A772313B72F
:1086A000C29B86CDEC8623EB626B7E23B6CA2C86FA
:1086B000232323AFBE23C2B486EB732372C3A886E1
:1086C0002A5E05444D7E23B62BC823237E23666F86
:1086D000CD9C8860697E23666F3FC83FD0C3C38648
:1086E000C02A5E05AF7723772322D6052A5E052BA5
:1086F00022CE052AAF0522C305AFCD408A2AD60572
:1087000022D80522DA05C12A5A05F921B30522B17A
:1087100005AF6F6722D40532CB0522DE05E5C52AF9
:10872000CE05C93E3FCDAD883E20CDAD88C34E05B8
:10873000AF32AE050E051161057EFE20CAB887472F
:10874000FE22CAD887B7CADF873AAE05B77EC2B85D
:1087500087FE3F3E9ECAB8877EFE30DA6387FE3CC6
:10876000DAB887D5115C83C501B487C5067F7EFE64
:1087700061DA7C87FE7BD27C87E65F774EEB23B69F
:10878000F27E87047EE67FC8B9C27E87EBE5131AC6
:10879000B7FAB0874F78FE88C29F87CD308A2B23E7
:1087A0007EFE61DAA887E65FB9CA8E87E1C37C875F
:1087B00048F1EBC9EB79C1D12312130CD63ACAC6E2
:1087C00087FE49C2C98732AE05D654C23987477E73
:1087D000B7CADF87B8CAB88723120C13C3CF872163
:1087E00060051213121312C93A4405B73E00324411
:1087F00005C2FC8705CA1988CDAD883E052BCA1075
:10880000887ECDAD88C32288052BCDAD88C2228855
:10881000CDAD88CDE28CC319882161050601AF3248
:108820004405CDD7884FFE7FCAE8873A4405B7CACA
:108830003B883E00CDAD88AF32440579FE07CA7F44
:1088400088FE03CCE28C37C8FE0DCADD8CFE15CA4B
:108850001388FE40CA1088FE5FCA0888FE08CA084E
:1088600088FE12C27A88C5D5E53600CD9C9E21616E
:1088700005CD8193E1D1C1C32288FE20DA22887818
:10888000FE493E07D29488797132CC052304CDADE0
:1088900088C32288CDAD883E08C38E887C92C07D77
:1088A00093C97EE3BE23E3CA308AC3D485F53A4533
:1088B00005B7C2B693F1C5F5FE20DAD1883A420574
:1088C000473AAB0504CACD8805B8CCE28C3C32AB44
:1088D00005F1C1CD0782C9CD0382E67FFE0FC03A04
:1088E00045052F324505AFC9CD068BC0C1CDC08629
:1088F000C5CD3E89E14E23462378B1CA1F86CD47B8
:1089000089CD5B8AC5CDE28C5E235623E5EBCD266F
:108910009A3E20E1CDAD887EB723CAF488F214894F
:10892000D67F4F115D831A13B7F226890DC22689AF
:10893000E67FCDAD881A13B7F23089C31789E52ACF
:108940004805224605E1C9E5D52A460511FFFF7B0A
:108950008D6F7A8C67224605D1E1F0E52A48052221
:108960004605CD0382FE03CA6E89E1C347892A48C2
:1089700005224605C398823E6432CB05CDE88BC103
:10898000E5CDD18B22C70521020039CD8185D1C229
:10899000A78909D52B562B5E2323E52AC705CD9C35
:1089A00088E1C28B89D1F9EB0E08CDB185E52AC7E4
:1089B00005E3E52A5C05E3CDAA8ECDA288A6CDA766
:1089C0008EE5CDD898E1C5D5010081515A7EFEAB28
:1089D0003E01C2E389CD308ACDA78EE5CDD898CDB2
:1089E0008C98E1C5D5F533E52ACE05E30681C5337C
:1089F000CD5B8A22CE057EFE3ACA108AB7C2D485E4
:108A0000237E23B6CA8C8A235E2356EB225C05EBB9
:108A1000CD308A11F089D5C8D680DAE88BFE25D210
:108A2000D485074F0600EB217C84094E2346C5EB15
:108A3000237EFE3AD0FE20CA308AFE303F3C3DC93C
:108A4000EB2A5E05CA558AEBCD068BE5CDC0866064
:108A500069D1D2A78B2B22DC05EBC9CD0B82C8CD07
:108A60000382FE1BCA7D8AFE03CA7D8AFE13C0CD27
:108A70000382FE11C8FE03CA828AC36F8A3EFF3298
:108A80004D05C0F6C022CE0521F6FFC12A5C05F5D2
:108A90007DA43CCA9F8A22D2052ACE0522D405AFE6
:108AA000324505CDD58CF1217785C20886C31F8656
:108AB0002AD4057CB51E20CAE885EB2AD205225CA3
:108AC00005EBC9CD0B96C0324105C9E52A4A05061A
:108AD000004F09224A05E1C97EFE41D8FE5B3FC92D
:108AE000CD308ACDA78ECD8C98FA018B3AE705FE62
:108AF00090DA3499018090110000E5CD0799E15199
:108B0000C81E08C3E8852B110000CD308AD0E5F5DA
:108B1000219819CD9C88DAD485626B19291929F11D
:108B2000D6305F160019EBE1C30A8BCAF086CDE39D
:108B30008A2BCD308AE52AAF05CA4E8BE1CDA288BB
:108B40002CD5CDE38A2BCD308AC2D485E3EB7D933F
:108B50005F7C9A57DAC985E52AD60501280009CD38
:108B60009C88D2C985EB225A05E122AF05E1C3F00A
:108B700086CAEC86CDF08601F089C38D8B0E03CDBD
:108B8000B185C1E5E52A5C05E33E8CF533C5CD062C
:108B90008BCDD38BE52A5C05CD9C88E123DCC38695
:108BA000D4C08660692BD81E0EC3E885C016FFCDE1
:108BB0007D85F9FE8C1E04C2E885E1225C05237CDC
:108BC000B5C2CB8B3ACC05B7C21E8621F089E33EF5
:108BD000E1013A0E0006007948477EB7C8B8C823BD
:108BE000FE22CAD78BC3DA8BCD9E90CDA288B4D596
:108BF0003AAD05F5CDB98EF1E322CE051FCDAC8E91
:108C0000CA3B8CE52AE405E523235E23562A5E054C
:108C1000CD9C88D22A8C2A5A05CD9C88D1D2328C00
:108C200021BF05CD9C88D2328C3ED1CDE294EBCDD4
:108C30001B93CDE294E1CDE798E1C9E5CDE498D16D
:108C4000E1C9CD0B967E47FE8CCA518CCDA2888897
:108C50002B4B0D78CA188ACD078BFE2CC0C3528CC3
:108C6000CDB98E7EFE88CA6E8CCDA288A92BCDAAE6
:108C70008ECD8C98CAD38BCD308ADA8E8BC3178A6F
:108C80002BCD308ACAE28CC8FEA5CA158DFEA8CAB3
:108C9000158DE5FE2CCAFE8CFE3BCA388DC1CDB9C0
:108CA0008EE53AAD05B7C2CE8CCD319ACD3F933625
:108CB000202AE405342AE4053A42054704CACA8C4E
:108CC000043AAB05863DB8D4E28CCD8493AFC4841E
:108CD00093E1C3808C3AAB05B7C8C3E28C36002160
:108CE00060053E0DCDAD883E0ACDAD88AF32AB05F7
:108CF0003A41053DC8F5AFCDAD88F1C3F38C3A4399
:108D000005473AAB05B8D4E28CD2388DD60ED20CDA
:108D10008D2FC32D8DF5CD0896CDA288292BF1D6A8
:108D2000A8E5CA288D3AAB052F83D2388D3C473E43
:108D300020CDAD8805C2318DE1CD308AC3878C3F0F
:108D40005265646F2066726F6D2073746172740D6A
:108D50000A003ACD05B7C2CE85C1213F8DCD8193A2
:108D6000C31F87CDEC927EFE223E00324505C27DB8
:108D70008DCD4093CDA2883BE5CD84933EE5CD23B8
:108D800087C1DA898A237EB72BC5CAD08B362CC31C
:108D9000978DE52ADC05F6AF32CD05E3C3A38DCD73
:108DA000A2882CCD9E90E3D57EFE2CCACB8D3ACDE9
:108DB00005B7C2388E3E3FCDAD88CD2387D1C1DA0D
:108DC000898A237EB72BC5CAD08BD53AAD05B7CAE1
:108DD000F58DCD308A5747FE22CAE98D3ACD05B7C9
:108DE00057CAE68D163A062C2BCD4393EB21008E05
:108DF000E3D5C3038CCD308ACD9399E3CDE498E1DC
:108E00002BCD308ACA0C8EFE2CC2528DE32BCD3076
:108E10008AC29F8DD13ACD05B7EBC2568AD5B6210D
:108E2000278EC48193E1C93F4578747261206967D8
:108E30006E6F7265640D0A00CDD18BB7C2518E235F
:108E40007E23B61E06CAE885235E2356EB22C9059B
:108E5000EBCD308AFE83C2388EC3CB8D110000C4A7
:108E60009E9022CE05CD7D85C2DA85F9D57E23F58B
:108E7000D5CDCA98E3E5CD3796E1CDE498E1CDDBD9
:108E800098E5CD0799E1C190CDDB98CA978EEB228A
:108E90005C056960C3EC89F92ACE057EFE2CC2F020
:108EA00089CD308ACD5F8ECDB98EF6373AAD058F3C
:108EB000B7E8C3E685CDA288282B1600D50E01CDD4
:108EC000B185CD308F22D0052AD005C178FE78D467
:108ED000AA8E7E1600D6B3DAF18EFE03D2F18EFE94
:108EE0000117AABA57DAD48522C505CD308AC3D571
:108EF0008E7AB7C219907E22C505D6ACD8FE07D0AF
:108F00005F3AAD053DB37BCA779407835F21C68482
:108F1000197856BAD023CDAA8EC501C88EC5434A4A
:108F2000CDBD9858514E234623C52AC505C3BC8ED6
:108F3000AF32AD05CD308A1E24CAE885DA9399CDCB
:108F4000D88AD2988FFE26C25C8FCD308AFE48CA5E
:108F5000DD9DFE42CA599E1E02CAE885FEACCA309B
:108F60008FFE2ECA9399FEADCA878FFE22CA409308
:108F7000FEAACA7990FEA7CAA492D6B6D2A98FCD6E
:108F8000B58ECDA28829C9167DCDBC8E2AD005E527
:108F9000CDB598CDAA8EE1C9CD9E90E5EB22E40532
:108FA0003AAD05B7CCCA98E1C90600074FC5CD3028
:108FB0008A79FE31DAD08FCDB58ECDA2882CCDAB9B
:108FC0008EEB2AE405E3E5EBCD0B96EBE3C3D88FFC
:108FD000CD7F8FE311938FD5012583094E236669D9
:108FE000E915FEADC8FE2DC814FE2BC8FEACC82B7B
:108FF000C9F6AFF5CDAA8ECDEC8AF1EBC1E3EBCD8E
:10900000CD98F5CDEC8AF1C179216292C21490A37A
:109010004F78A2E9B34F78B2E9212B903AAD051F02
:109020007A175F166478BAD0C3198F2D9079B71F5D
:10903000C1D1F5CDAC8E216F90E5CA0799AF32ADA5
:1090400005D5CDC4947E23234E2346D1C5F5CDC886
:1090500094CDDB98F157E17BB2C87AD601D8AFBB8B
:109060003CD0151D0ABE2303CA57903FC397983CB6
:109070008FC1A0C6FF9FC39E98165ACDBC8ECDAAA5
:109080008ECDEC8A7B2F4F7A2FCD6292C1C3C88ED2
:109090002BCD308AC8CDA2882C019090C5F6AF3276
:1090A000AC0546CDD88ADAD485AF4F32AD05CD3088
:1090B0008ADABA90CDD88ADAC7904FCD308ADABB37
:1090C00090CDD88AD2BB90D624C2D6903C32AD0582
:1090D0000F814FCD308A3ACB053DCA8391F2E6909D
:1090E0007ED628CA5B91AF32CB05E550592ADE0502
:1090F000CD9C8811E005CACD972AD805EB2AD60564
:10910000CD9C88CA1991799623C20E91789623CA6C
:109110004D9123232323C30091E1E3D5119B8FCDF0
:109120009C88D1CA5091E3E5C50106002ADA05E51D
:1091300009C1E5CDA085E122DA05606922D8052BB9
:109140003600CD9C88C23F91D173237223EBE1C9D5
:1091500032E70521708522E405E1C9E52AAC05E383
:1091600057D5C5CDE08AC1F1EBE3E5EB3C577EFE78
:109170002CCA6191CDA2882922D005E122AC051E1E
:1091800000D511E5F52AD8053E19EB2ADA05EBCD15
:109190009C88CABB917EB923C29D917EB8235E2371
:1091A0005623C289913AAC05B7C2DD85F1444DCA58
:1091B000CD9796CA19921E10C3E885110400F1CA12
:1091C000018B712370234FCDB185232322C50571F7
:1091D000233AAC051779010B00D2DE91C10371234C
:1091E0007023F5E5CD7899EBE1F13DC2D691F542DA
:1091F0004BEB19DAC985CDBA8522DA052B3600CDBD
:109200009C88C2FC9103572AC5055EEB2909EB2B0C
:109210002B73237223F1DA3D92474F7E2316E15ED2
:10922000235623E3F5CD9C88D2B691E5CD7899D12C
:1092300019F13D444DC21E922929C109EB2AD005DE
:10924000C92ADA05EB210000393AAD05B7CA5D92AB
:10925000CDC494CDC4932A5A05EB2AC3057D934F00
:109260007C9A41501E0021AD05730690C3A3983A25
:10927000AB0547AFC36392CDFA92CDEC9201D18B8F
:10928000C5D5CDA28828CD9E90E5EB2B562B5EE16F
:10929000CDAA8ECDA28829CDA288B4444DE37123F6
:1092A00070C33993CDFA92D5CD7F8FCDAA8EE35E70
:1092B0002356237AB3CAE0857E23666FE52ADE054E
:1092C000E322DE052AE205E52AE005E521E005D5F1
:1092D000CDE498E1CDA78E2BCD308AC2D485E12292
:1092E000E005E122E205E122DE05E1C9E52A5C05AF
:1092F000237CB5E1C01E16C3E885CDA288A73E80B9
:1093000032CB05B647CDA390C3AA8ECDAA8ECD3160
:109310009ACD3F93CDC494011F95C57E2323E5CDFF
:109320009A93E14E2346CD3393E56FCDB794D1C9DF
:10933000CD9A9321BF05E5772323732372E1C92BCF
:10934000062250E50EFF237E0CB7CA5593BACA55C4
:1093500093B8C24693FE22CC308AE323EB79CD3317
:109360009311BF052AB10522E4053E0132AD05CDBA
:10937000E798CD9C8822B105E17EC01E1EC3E8851A
:1093800023CD3F93CDC494CDDB981C1DC80ACDAD31
:1093900088FE0DCCEC8C03C38B93B70EF1F52A5AE3
:1093A00005EB2AC3052F4F06FF0923CD9C88DAB8A9
:1093B0009322C30523EBF1C9F11E1ACAE885BFF554
:1093C000019C93C52AAF0522C305210000E52A5A56
:1093D00005E521B305EB2AB105EBCD9C8801D593BA
:1093E000C229942AD605EB2AD805EBCD9C88CAFC65
:1093F000937E2323B7CD2C94C3E693C1EB2ADA05E1
:10940000EBCD9C88CA5294CDDB987BE509B7F2FB83
:109410009322C505E14E0600090923EB2AC505EB99
:10942000CD9C88CAFC93011B94C5F6807E23235EE5
:10943000235623F0B7C8444D2AC305CD9C886069E4
:10944000D8E1E3CD9C88E3E56069D0C1F1F1E5D5D1
:10945000C5C9D1E17DB4C82B462B4EE52B2B6E261A
:10946000000950592B444D2AC305CDA385E1712332
:109470007069602BC3C793C5E52AE405E3CD308F3F
:10948000E3CDAB8E7EE52AE405E5861E1CDAE88591
:10949000CD3093D1CDC894E3CDC794E52AC105EB77
:1094A000CDAE94CDAE9421C58EE3E5C36193E1E3E7
:1094B0007E23234E23466F2C2DC80A120313C3B8F4
:1094C00094CDAB8E2AE405EBCDE294EBC0D5505998
:1094D0001B4E2AC305CD9C88C2E094470922C305D0
:1094E000E1C92AB1052B462B4E2B2BCD9C88C022DF
:1094F000B105C9017292C5CDC194AF5732AD057E99
:10950000B7C9017292C5CDF794CA018B23235E239C
:10951000561AC93E01CD3093CD0E962AC10573C1AE
:10952000C36193CDBE95AFE34FE57EB8DA31957850
:10953000110E00C5CD9A93C1E1E523234623666849
:10954000060009444DCD33936FCDB794D1CDC89467
:10955000C36193CDBE95D1D51A90C32795EB7ECD2F
:10956000C3950405CA018BC51EFFFE29CA7695CD99
:10957000A2882CCD0B96CDA28829F1E3012995C5AF
:109580003DBE0600D04F7E91BB47D843C9CDF7946E
:10959000CAAC965F23237E23666FE5194672E3C546
:1095A0007EFE24C2AC95CDDD9DC3BA95FE25C2B723
:1095B00095CD599EC3BA95CD9399C1E170C9EBCDB4
:1095C000A28829C1D1C543C9CD0E96323F05CD3EF3
:1095D00005C37292CDF895C30605CDF895F51E002A
:1095E0002BCD308ACAEE95CDA2882CCD0B96C1CD5D
:1095F0003E05ABA0CAEF95C9CD0B96323F053207A9
:1096000005CDA2882CC30B96CD308ACDA78ECDE692
:109610008A7AB7C2018B2BCD308A7BC9CDEC8A1AEE
:10962000C37292CDA78ECDEC8AD5CDA2882CCD0B5E
:1096300096D112C9210A9BCDDB98C34696CDDB9803
:1096400021C1D1CDB59878B7C83AE705B7CACD984A
:1096500090D260962F3CEBCDBD98EBCDCD98C1D18B
:10966000FE19D0F5CDF29867F1CD0B97B421E40542
:10967000F28696CDEB96D2CC962334CAE3852E01A2
:10968000CD2197C3CC96AF90477E9B5F237E9A57A0
:10969000237E994FDCF7966863AF4779B7C2B996D6
:1096A0004A54656F78D608FEE0C29A96AF32E70555
:1096B000C905297A1757798F4FF2B196785C45B76B
:1096C000CACC9621E7058677D2AC96C87821E70503
:1096D000B7FCDE9646237EE680A94FC3CD981CC01A
:1096E00014C00CC00E8034C0C3E3857E835F237E2C
:1096F0008A57237E894FC921E8057E2F77AF6F9067
:10970000477D9B5F7D9A577D994FC90600D608DA41
:109710001A97435A510E00C30D97C6096FAF2DC853
:10972000791F4F7A1F577B1F5F781F47C31D970014
:1097300000008103AA561980F122768045AA38825A
:10974000CD8C98B7EA018B21E7057E01358011F3B6
:109750000490F570D5C5CD4696C1D104CDE29721D0
:109760002F97CD3D96213397CDD49B01808011005A
:1097700000CD4696F1CD079A01318011187221C1B2
:10978000D1CD8C98C82E00CD4A987932F605EB22BF
:10979000F7050100005058219796E521A397E5E5CC
:1097A00021E4057E23B7CACF97E52E081F6779D23B
:1097B000BD97E52AF70519EBE13AF605891F4F7ABF
:1097C0001F577B1F5F781F472D7CC2AC97E1C943B1
:1097D0005A514FC9CDBD98012084110000CDCD98BC
:1097E000C1D1CD8C98CAD7852EFFCD4A9834342B61
:1097F0007E3212052B7E320E052B7E320A0541EB9E
:10980000AF4F575F321505E5C57DCD0905DE003F39
:10981000D21A98321505F1F137D2C1E1793C3D1FDA
:10982000FACD96177B175F7A175779174F29781754
:10983000473A15051732150579B2B3C20798E521E5
:10984000E70535E1C20798C3E38578B7CA6E987D0E
:1098500021E705AE80471FA878F26D98C68077CAC9
:10986000CD97CDF298772BC9CD8C982FE1B7E1F247
:10987000AC96C3E385CDD89878B7C8C602DAE3853D
:1098800047CD469621E70534C0C3E3853AE705B7DF
:10989000C83AE605FE2F179FC03CC9CD8C980688B4
:1098A00011000021E7054F70060023368017C3948E
:1098B00096CD8C98F021E6057EEE8077C9EB2AE400
:1098C00005E3E52AE605E3E5EBC9CDDB98EB22E409
:1098D00005606922E605EBC921E4055E2356234EA7
:1098E000234623C911E40506041A77132305C2E9A8
:1098F00098C921E6057E07371F773F1F2323777915
:1099000007371F4F1FAEC978B7CA8C98219598E5C5
:10991000CD8C9879C821E605AE79F8CD21991FA99B
:10992000C92378BEC02B79BEC02B7ABEC02B7B96D4
:10993000C0E1E1C9474F575FB7C8E5CDD898CDF230
:1099400098AE67FC58993E9890CD0B977C17DCDE5B
:10995000960600DCF796E1C91B7AA33CC00BC9212F
:10996000E7057EFE983AE405D07ECD349936987BA3
:10997000F57917CD9496F1C921000078B1C83E1051
:1099800029DAB691EB29EBD28E9909DAB6913DC26C
:109990008099C9FE2DF5CA9F99FE2BCA9F992BCDA0
:1099A000AC9647575F2F4FCD308ADAF099FE2ECA1A
:1099B000CB99FE45C2CF99CD308ACDE18FCD308A8B
:1099C000DA129A14C2CF99AF935F0C0CCAA799E52B
:1099D0007B90F4E899F2DE99F5CDD497F13CC2D2B0
:1099E00099D1F1CCB598EBC9C8F5CD7598F13DC9C1
:1099F000D557788947C5E5D5CD7598F1D630CD07CF
:109A00009AE1C1D1C3A799CDBD98CD9E98C1D1C3CC
:109A100046967B0707830786D6305FC3BD99E5214D
:109A20006C85CD8193E1EBAF0698CDA3982180930F
:109A3000E521E905E5CD8C983620F23F9A362D23B5
:109A40003630CAF59AE5FCB598AFF5CDFB9A0143DF
:109A50009111F84FCD0799B7E26C9AF1CDE999F5DC
:109A6000C34E9ACDD497F13CF5CDFB9ACD34963CBC
:109A7000CD3499CDCD98010603F1813CFA889AFE48
:109A800008D2889A3C473E023D3DE1F5110E9B0508
:109A9000C2999A362E2336302305362ECCE298C54D
:109AA000E5D5CDD898E1062F047B965F237A9E57A3
:109AB00023799E4F2B2BD2A89ACDEB9623CDCD9810
:109AC000EBE17023C10DC2999A05CAD99A2B7EFE8B
:109AD00030CACD9AFE2EC4E298F1CAF89A364523D0
:109AE000362BF2E99A362D2F3C062F04D60AD2EBFC
:109AF0009AC63A237023772371E1C901749411F750
:109B000023CD0799B7E1E2639AE900000080A086BF
:109B100001102700E803006400000A0000010000B3
:109B200021B598E3E9CDBD98210A9BCDCA98C1D152
:109B3000CD8C9878CA739BF23E9BB7CAD785B7CABB
:109B4000AD96D5C579F67FCDD898F25B9BD5C5CDBE
:109B50005F99C1D1F5CD0799E17C1FE122E605E1CE
:109B600022E405DC209BCCB598D5C5CD4097C1D16A
:109B7000CD8197CDBD98013881113BAACD81973A0F
:109B8000E705FE88D26898CD5F99C680C602DA687C
:109B900098F5212F97CD3796CD7897F1C1D1F5CD96
:109BA0004396CDB59821B39BCDE39B110000C14AEC
:109BB000C3819708402E9474704F2E776E02887A76
:109BC000E6A02A7C50AAAA7EFFFF7F7F000080814A
:109BD00000000081CDBD98117F97D5E5CDD898CDF7
:109BE0008197E1CDBD987E23CDCA9806F1C1D13DC4
:109BF000C8D5C5F5E5CD8197E1CDDB98E5CD469695
:109C0000E1C3EC9BCD8C98211905FA659C213A059E
:109C1000CDCA98211905C886E607060077238787ED
:109C20004F09CDDB98CD81973A18053CE603060035
:109C3000FE018832180521699C87874F09CD379628
:109C4000CDD8987B59EE4F4F36802B463680211762
:109C500005347ED6ABC25C9C770C151CCD97962143
:109C60003A05C3E498772B772B77C3409C68B146BD
:109C70006899E9926910D1756821C39CCD3796CD5A
:109C8000BD9801498311DB0FCDCD98C1D1CDE297AD
:109C9000CDBD98CD5F99C1D1CD439621C79CCD3D17
:109CA00096CD8C9837F2AF9CCD3496CD8C98B7F585
:109CB000F4B59821C79CCD3796F1D4B59821CB9CAB
:109CC000C3D49BDB0F49810000007F05BAD71E86F5
:109CD0006426998758342387E05DA586DA0F498387
:109CE000CDBD98CD7F9CC1E1CDBD98EBCDCD98CDBC
:109CF000799CC3E097CD8C98FC209BFCB5983AE703
:109D000005FE81DA129D0100815159CDE297213D76
:109D100096E5211C9DCDD49B21C39CC9094AD73B04
:109D200078026E847BFEC12F7C74319A7D843D5A0B
:109D30007DC87F917EE4BB4C7E6CAAAA7F000000A8
:109D400081C93E0CC30782CD0B967B324205C9CD3B
:109D5000A78ECDEC8AE5D5E1224605224805E1C96A
:109D6000CDEC8AD5E146237EC36392CDA78ECDECA0
:109D70008AD5CDA2882CCDA78ECDEC8AE373237231
:109D8000E1C9CDAA8ECDEC8AC521E9057AFE00CACB
:109D90009F9DCDBE9D78FE30CA9D9D702371237B13
:109DA000CDBE9D7AFE00C2AF9D78FE30CAB19D70D7
:109DB000237123AF772377C121E905C3119347E6C8
:109DC0000FFE0ADAC89DC607C6304F780F0F0F0F77
:109DD000E60FFE0ADAD99DC607C63047C9EB210057
:109DE00000CDF99DDA1A9EC3F09DCDF99DDA119E42
:109DF00029292929B56FC3EA9D131AFE20CAF99DA6
:109E0000D630D8FE0ADA0D9ED607FE0AD8FE103FDD
:109E1000C9EB7A4BE5CD6292E1C91E26C3E885CD38
:109E2000AA8ECDEC8AC521E90506110578FE01CA86
:109E30003E9E7B175F7A1757D22B9EC3449E7B179B
:109E40005F7A17573E30CE00772305C23E9EAF772C
:109E50002377C121E905C31193EB210000CD779E43
:109E6000DA859ED63029B56FCD779ED2639EEB7A88
:109E70004BE5CD6292E1C9131AFE20CA779EFE30EF
:109E8000D8FE323FC91E28C3E885C327823E003270
:109E90004D05C32E82F5A0C1B83E00C9CDAD88C323
:109EA000E28CFFFFFFFFFFFFFFFFFFFFFFFFFFFF52
:10C00000B800008ED88ED0BC0010E8E008B8000060
:10C01000A3180FB80004A31A0FA3200FA3220FB078
:10C0200049A2240F32C0A2250F33C0BB280FB90E7E
:10C0300000890743434975F9B80000A33E0FA340A8
:10C040000FB80010A3320F33C08EC0BECBC68BF822
:10C05000B900022E8B044646268905474749741AC3
:10C0600081FEDFC675EDB868C6BB00F026890547BE
:10C070004726891D4747494975F2BB69C6E85304FD
:10C080009C588BC825FF0F509D9C582500F03D0003
:10C09000F0751D545A3BD47432B80001D5000AC063
:10C0A0007507B011BBDFC6EB27B014BBF9C6EB2098
:10C0B00081C900F0519D9C582500F07507B031BB37
:10C0C00003C7EB0CB071BB0BC7EB0532C0BB13C78A
:10C0D000A2250FE8FD03BB84C6E8F703E86604BBAE
:10C0E000000FE8AF04E8B60422C074EA3C447502CD
:10C0F000EB2B3C477503E947013C537503E9A2016B
:10C100003C4C7503E928023C527503E918033C4294
:10C110007503E96CBFBBA1C6E8B803EBB943E8738C
:10C1200004E885040AC97515E869040AC075E68B38
:10C13000161A0F81C2800089161C0FEB438A073C38
:10C140003A750C8916180F43E85E040AC974C6894B
:10C15000161A0F8A073C2C740E0AC075B881C2806B
:10C160000089161C0FEB1943E82904E83B04E82377
:10C17000040AC974A08A070AC0759A4289161C0F5E
:10C180008E06180F8B361A0F83E6F032C0A21E0FF0
:10C19000E82300E883070AC07512A01E0F3C027254
:10C1A000EF8B1E1C0F891E1A0FE92AFF89361A0F02
:10C1B000E85D07E920FFA1180FE83203B03AE85D17
:10C1C000078BC6E82803BBA9C6E80703BF000FB961
:10C1D0001000E82800E2FBBBACC6E8F602BF000F87
:10C1E000B910008A05473C2072093C7F7305E82D91
:10C1F00007EB05B02EE82607E2E9E93E03B020E8A8
:10C200001C07A01E0F0AC0751A3B361A0F740FB018
:10C21000208805E80807B020E803074647C3B001B7
:10C22000A21E0FA01E0F3C0175E5268A048805E8B2
:10C23000C30246473B361C0F7505B002A21E0FC352
:10C2400043E85003E862030AC974168A073C3A754A
:10C250000C89163C0F43E850030AC9744289163A08
:10C260000F8A070AC075388E16400F8B26320FA131
:10C27000300F50A13C0F50A13A0F50A1280F8B1E38
:10C280002A0F8B0E2C0F8B162E0F8B2E340F8B3606
:10C29000360F8B3E380F8E06420F8E1E3E0FCFE9B3
:10C2A00073FE43E8EE02E800030AC9741F8A073CE4
:10C2B0003A750C8916180F43E8EE020AC974E08932
:10C2C00016220FE8CE028A070AC075D3A1180F8E76
:10C2D000C0E81A02B03AE845068B36220F8BC6E852
:10C2E0000C02BBACC6E8EB01268A04E80702B020CA
:10C2F000E82B06E84F02BB000FE898028A070AC045
:10C300007507468936220FEBC33C2D75074E8936DB
:10C31000220FEBB83C2E7503E9BBFDE88B020AC97E
:10C32000740A268814468936220FEBA0E9E6FD43FD
:10C33000E86102E873020AC974148A073C3A75106E
:10C340008916180F43E861020AC9742BEB0233D235
:10C350008A070AC075218BF28E06180FE8B105E82E
:10C360003C023C5374683C3A74103C0D74EE3C0A39
:10C3700074EAE89B05EBF3E99BFDE892018AC88A21
:10C38000D8E88B018AF002C8E884018AD002C88B01
:10C39000FA03FEE87901A2260F02C80ADB7415E849
:10C3A0006D0102C88A3E260F0AFF750426880547DC
:10C3B000FECB75EBE8580102C1750AA0260F0AC032
:10C3C00074A8E911FDBB87C6E80801E908FDE83F4C
:10C3D00005A2260FE838018AD88AC8E831018AF018
:10C3E00002C8E82A018AD002C88BFA03FE80EB0358
:10C3F000722B7416E8180102C88A3E260F80FF319E
:10C40000750426880547FECB75EAE8020102C13CA7
:10C41000FF750AA0260F3C397409E94DFFBB94C68D
:10C42000E8B000E9B0FC43E86A01E871010AC075B0
:10C4300006E88200E99FFCBECEC72E3A04740D2E9A
:10C440008A4C010AC9746C83C606EBEE2E8A44013D
:10C450003C0F750C2E8B7402438A07E84001EBDA1F
:10C460000AC0744F2E8A4C012E8B5C04E86400B025
:10C470003DE8AA042E8B5C0280E107535180F9014C
:10C4800075078A07E86E00EB058B07E86000B020AF
:10C49000E88B04E8AF00BB000FE8F800E80A010AE7
:10C4A000C9740D595B80F90175048817EB0289176F
:10C4B000E923FCE95FFCBE4CC72E8B1C0BDB74111F
:10C4C000E8100046462E8B1C8B07E821004646EB01
:10C4D000E8EB682E8A0722C07406E8410443EBF3B8
:10C4E000C38A0722C07406E8340443EBF4C3508ABD
:10C4F000C4E801005850D0E8D0E8D0E8D0E8E8011E
:10C500000058240F04303C3A72020407E90F043249
:10C51000C0E80800D0E0D0E0D0E0D0E08AE8E8EF62
:10C5200003E87A003C3072123C3A720A3C41720ACB
:10C530003C4773062C072C300AC5C3B00DE8DE0358
:10C54000B00AE9D903BB000F32C9E8C3033C0D743C
:10C550003B3C0A74373C08741B3C7F74173C2072C8
:10C56000E93C8073E580F91773E08807E8AF03437F
:10C57000FEC1EBD622C974D24BFEC9B008E89E03B7
:10C58000B020E89903B008E89403EBBEE8ACFFB034
:10C59000008807C38A073C20750343EBF7C33C615F
:10C5A00072063C7B730204E0C332C933D28A07E8C7
:10C5B000ECFF3C30721F3C3A720A3C4172173C4718
:10C5C00073132C072C30D1E2D1E2D1E2D1E20AD0B0
:10C5D00043FEC1EBD8C3501EB800008ED8891E2A76
:10C5E0000F890E2C0FBB1DC733C9EB41501EB8007D
:10C5F000008ED8891E2A0F890E2C0FBB2CC733C979
:10C60000EB2B501EB800008ED8891E2A0F890E2CE5
:10C610000FBB39C7B90100EB14501EB800008ED80B
:10C62000891E2A0F890E2C0FBB41C733C958A33E60
:10C630000F58A3280F89162E0F892E340F893636EE
:10C640000F893E380F8C06420F582BC1A33A0F5862
:10C65000A33C0F58A3300F8926320F8C16400FE8E9
:10C6600071FEE851FEE96EFACF0D0A556E697665E6
:10C670007273616C204D6F6E69746F722038303840
:10C68000360D0A005D20004572726F722069686580
:10C69000780D0A004572726F7220737265630D0A1D
:10C6A000004572726F720D0A00203A00203A200095
:10C6B0003A303030303030303146460D0A00533990
:10C6C00030333030303046430D0A00D6C500F0EC30
:10C6D000C500F068C600F002C600F019C600F038C8
:10C6E0003038362F383038380D0A00383031383687
:10C6F0002F38303138380D0A005633302F5632304B
:10C700000D0A0038303238360D0A003830333836EA
:10C710000D0A00556E6B6E6F776E0D0A00446976D8
:10C72000696465206572726F720D0A0053746570DA
:10C730000D0A004E4D490D0A00427265616B0D0AEB
:10C74000004F766572666C6F770D0A0088C7280FF8
:10C750008CC72A0F91C72C0F96C72E0F9BC7300F7F
:10C760009FC73C0FA5C73E0FAAC7400FAFC7420FD8
:10C77000B4C7320FBAC7340FBFC7360FC4C7380F9C
:10C78000C9C73A0F0000000041583D002042583D03
:10C79000002043583D002044583D0020463D0020E5
:10C7A0002043533D002044533D002053533D00207F
:10C7B00045533D000D0A53503D002042503D00209E
:10C7C00053493D002044493D002049503D00410F60
:10C7D00004C80000420F1CC80000430F3AC8000004
:10C7E000440F58C80000450F58C800004602300FDB
:10C7F000DFC8490F88C80000530F94C8000000002C
:10C80000000000005802280FACC84801290FAFC82B
:10C810004C01280FB2C800000000000058022A0F87
:10C82000B5C848012B0FB8C84C012A0FBBC850022D
:10C83000340FBEC800000000000058022C0FC1C811
:10C8400048012D0FC4C84C012C0FC7C853023C0F20
:10C85000CAC800000000000058022E0FCDC84801D1
:10C860002F0FD0C84C012E0FD3C84902380FD6C89D
:10C8700053023E0FD9C80000000000005302420FCF
:10C88000DCC800000000000050023A0FE1C80000C0
:10C89000000000004902360FE4C85002320FE7C81A
:10C8A0005302400FEAC80000000000004158004158
:10C8B0004800414C00425800424800424C0042505F
:10C8C00000435800434800434C0043530044580081
:10C8D000444800444C00444900445300455300463A
:10C8E00000495000534900535000535300B000E634
:10C8F000019090B000E6019090B000E6019090B0F9
:10C9000040E6019090B04EE6019090B037E601C34A
:10C91000E401240274FAE400C3E4012402C350E4F5
:10C9200001240174FA58E600C3FFFFFFFFFFFFFF79
:10C93000000E7A6F000E796F57C58BF558C58CF5D0
:10C9400059C58DF55AC58EF58EAF16D0000E7A6F8B
:10C95000010E796F8BC501F58CC502F58DC503F508
:10C960008EC504F573ECF8F001C58BF502C58CF5A6
:10C9700003C58DF504C58EF5000E926F000E916F04
:10C98000C5C57DF5C6C57EF579517A11D8A402D00A
:10C99000C9A514D079517A11D8A404D0000E666FBD
:10C9A0002B0E03D0000E666F2D0E656F610096F59D
:10C9B00000F6914B922B7D07D8A07E078BC501F521
:10C9C0008CC502F58DC503F58EC504F5EDECF4F0CC
:10C9D00001040210D8A443D0BF0E0501606FFF0E02
:10C9E000616F5B50626F636B6051622761516323BB
:10C9F000635111E11A0E625DD8B00DD0000E912581
:10CA0000016E260E9221026EEB0E036EFF0E046E77
:10CA100083ECF7F00CD0000E9125016E260E9221CA
:10CA2000026EF30E036EFF0E046E83ECF7F0050149
:10CA3000FD0E7D27FF0E7E2355C512F556C513F555
:10CA4000000E146E260E156E7DC516F57EC517F503
:10CA500013ECF6F012C555F513C556F512008BC54B
:10CA600001F58CC502F58DC503F58EC504F5EDEC19
:10CA7000F4F001500210D8A443D0BF0E0501606F3E
:10CA8000FF0E616F5B50626F636B60516227615193
:10CA90006323635111E11A0E625DD8B00DD0000E10
:10CAA0009125016E260E9221026EEF0E036EFF0E8F
:10CAB000046E83ECF7F00CD0000E9125016E260E6B
:10CAC0009221026EF70E036EFF0E046E83ECF7F0F8
:10CAD0000501FD0E7D27FF0E7E2355C512F556C5B7
:10CAE00013F5000E146E260E156E7DC516F57EC567
:10CAF00017F513ECF6F012C555F513C556F51200EF
:10CB0000000E0501936F000E946F800E956F3F0E1F
:10CB1000966F000E906F000E8F6F8BC501F58CC560
:10CB200002F58DC503F58EC504F5000E056E000EE9
:10CB3000066E000E076E000E086E60ECF6F0D8A0D0
:10CB40001ED076D093C50FF594C510F595C511F597
:10CB500096C512F5000E136E000E146E200E156EA3
:10CB6000410E166E6DECECF00FC593F510C594F503
:10CB700011C595F512C596F505018F4B902B8BC508
:10CB800028F58CC529F58DC52AF58EC52BF5000E27
:10CB9000136E000E146E200E156E410E166E93C5A8
:10CBA0000FF594C510F595C511F596C512F56DEC08
:10CBB000ECF00FC52CF510C52DF511C52EF512C5DD
:10CBC0002FF585ECF4F0D8A01FD0BCD793C528F57D
:10CBD00094C529F595C52AF596C52BF5000E2C6E42
:10CBE000000E2D6E200E2E6E410E2F6E2DECF1F0EC
:10CBF00028C593F529C594F52AC595F52BC596F555
:10CC000005018F07D8A090078BC528F58CC529F59D
:10CC10008DC52AF58EC52BF593C52CF594C52DF53C
:10CC200095C52EF596C52FF585ECF4F0D8A0CED796
:10CC30005BC507F5086AF3ECF7F007500501806F54
:10CC400080C57FF5670E8019D8A419D0C751C811C7
:10CC5000D8A404D0000EC86F010EC76FC8BF05D09E
:10CC6000C85108E1C705D8B005D0000E7C6F060E8C
:10CC70007B6F08D0C7C57BF5C8C57CF503D0C8AFAE
:10CC8000F9D7F3D7670E8019D8A422D090AF06D079
:10CC9000FC0E8F5DFF0E9059D8A018D0FF0E606F6C
:10CCA000FF0E616F7BC562F57CC563F5605162273D
:10CCB000615163238F51625D6351800A646F9051AB
:10CCC000800A6459D8A002D0660E01D0650E7F6F2D
:10CCD0007BC571F57CC572F5670E8019D8A405D0A7
:10CCE000660E7F19D8B490AF02D0714B722B660ECE
:10CCF0007F19D8A416D090AF0CD0000E936F000E01
:10CD0000946F800E956F3F0E966F000E906F000E21
:10CD10008F6F670E8019D8B404D08F51712790514E
:10CD20007223000E8A6F000E896F8BC581F58CC54A
:10CD300082F58DC583F58EC584F593C573F594C5CD
:10CD400074F595C575F596C576F57BD081C528F542
:10CD500082C529F583C52AF584C52BF593C52CF525
:10CD600094C52DF595C52EF596C52FF52DECF1F052
:10CD700028C541F529C542F52AC543F52BC544F51B
:10CD800071ECF2F041C585F542C586F543C587F5DE
:10CD900044C588F585C501F586C502F587C503F547
:10CDA00088C504F5B6ECF5F001C577F502C578F550
:10CDB00081C528F582C529F583C52AF584C52BF5DB
:10CDC00093C513F594C514F595C515F596C516F5D7
:10CDD00085C50FF586C510F587C511F588C512F50F
:10CDE0006DECECF00FC52CF510C52DF511C52EF529
:10CDF00012C52FF5B1ECF7F028C581F529C582F5EC
:10CE00002AC583F52BC584F593C528F594C529F566
:10CE100095C52AF596C52BF5000E2C6E000E2D6ECD
:10CE2000200E2E6E410E2F6E2DECF1F028C593F5DD
:10CE300029C594F52AC595F52BC596F50501894BAD
:10CE40008A2B7151895D8A51800A606F7251800A04
:10CE50006059D8A07BD793C50FF594C510F595C53B
:10CE600011F596C512F5000E136E000E146EA00E8D
:10CE7000156E400E166E6DECECF00FC585F510C505
:10CE800086F511C587F512C588F581C528F582C5D7
:10CE900029F583C52AF584C52BF585C52CF586C5EE
:10CEA0002DF587C52EF588C52FF585ECF4F0D8B0A3
:10CEB00003D0000E050118D081C501F582C502F529
:10CEC00083C503F584C504F585C505F586C506F556
:10CED00087C507F588C508F560ECF6F0D8A00BD03B
:10CEE000050177B108D0000E856F000E866F000E29
:10CEF000876F000E886F8BC501F58CC502F58DC557
:10CF000003F58EC504F585C505F586C506F587C507
:10CF100007F588C508F5A7ECEFF001C581F502C556
:10CF200082F503C583F504C584F581C528F582C55E
:10CF300029F583C52AF584C52BF5000E136E000E66
:10CF4000146E200E156E410E166E73C50FF574C566
:10CF500010F575C511F576C512F56DECECF00FC541
:10CF60002CF510C52DF511C52EF512C52FF585EC44
:10CF7000F4F0D8A024D005018F4B902B73C50FF58A
:10CF800074C510F575C511F576C512F5000E136E52
:10CF9000000E146E200E156E410E166E6DECECF048
:10CFA0000FC573F510C574F511C575F512C576F585
:10CFB000660E05017F19D8A402D0714B722B73C580
:10CFC00093F574C594F575C595F576C596F5650E1A
:10CFD00005017F19D8B405D08FC56FF590C570F5E0
:10CFE00004D0000E706F000E6F6F000E6E6F000E9B
:10CFF0006D6F000E6C6F000E6B6F000E8A6F000E6F
:10D00000896FC6D081C528F582C529F583C52AF563
:10D0100084C52BF593C52CF594C52DF595C52EF536
:10D0200096C52FF52DECF1F028C541F529C542F53F
:10D030002AC543F52BC544F571ECF2F041C585F5E1
:10D0400042C586F543C587F544C588F585C501F514
:10D0500086C502F587C503F588C504F5B6ECF5F07D
:10D0600001C577F502C578F50501C9B90CD077512E
:10D070007811D8A408D0670E8019D8B470AF03D047
:10D080006B4B6C2B39D06D516E11D8B470AF22D070
:10D09000000E9125D96E260E9221DA6E2E0EDF6ECD
:10D0A000914B922B7D07D8A07E07000E6E6F010E6C
:10D0B0006D6F10D0000E9125D96E260E9221DA6E7A
:10D0C000300EDF6E914B922B7D07D8A07E076B0749
:10D0D000D8A06C076B516C11D8A4ECD7000E912529
:10D0E000D96E260E9221DA6E7751300FDF6E914B9A
:10D0F000922B7D07D8A07E0781C528F582C529F52A
:10D1000083C52AF584C52BF593C513F594C514F58D
:10D1100095C515F596C516F585C50FF586C510F5A7
:10D1200087C511F588C512F56DECECF00FC52CF52F
:10D1300010C52DF511C52EF512C52FF5B1ECF7F080
:10D1400028C581F529C582F52AC583F52BC584F547
:10D1500093C528F594C529F595C52AF596C52BF5EF
:10D16000000E2C6E000E2D6E200E2E6E410E2F6EB8
:10D170002DECF1F028C593F529C594F52AC595F550
:10D180002BC596F505016F07D8A07007894B8A2B30
:10D190007151895D8A51800A606F7251800A6059AD
:10D1A000D8B008D092BF2ED7925104E14B0E915DBA
:10D1B000D8A028D76D516E11D8B4C9A90AD0000ED5
:10D1C0009125D96E260E9221DA6E2E0EDF6E914BCE
:10D1D000922B000E9125D96E260E9221DA6E000E4A
:10D1E000DF6E650E7F19D8A4A5D0000E8A6F4F0E92
:10D1F000896F000E8925D96E260E8A21DA6E000EFF
:10D20000DF6E000E7A6F000E796F90AF08D0000EBF
:10D210007A6F010E796F8F6D901FD8B0902B000E32
:10D220007C6F020E7B6F2AD08907D8A08A07000E78
:10D230008925D96E260E8A21DA6E8FC501F590C533
:10D2400002F5000E046E0A0E036EE7ECF6F00150D4
:10D25000300FDF6E8FC501F590C502F5000E046E2C
:10D260000A0E036EA5ECF6F001C58FF502C590F528
:10D270007B07D8A07C077D07D8A07E078F5190112F
:10D28000D8A4D2D77CBF05D07C51CEE17B05D8B0E5
:10D29000CBD78907D8A08A0779517A11D8A404D0AE
:10D2A000000E686F2B0E03D0000E686F2D0E676F97
:10D2B000000E8925D96E260E8A21DA6E61009CF552
:10D2C000DFF47D07D8A07E078907D8A08A07BF0EA4
:10D2D000606FFF0E616F5B50626F636B605162271E
:10D2E00061516323635104E11A0E625DD8A004D03A
:10D2F000000E6A6F650E03D0000E6A6F450E696FEF
:10D30000000E8925D96E260E8A21DA6E6100A4F5F9
:10D31000DFF47D07D8A07E07000E9125016E260E52
:10D320009221026E000E8925036E260E8A21046E5C
:10D3300083ECF7F055C512F556C513F5000E146EC3
:10D34000260E156E7DC516F57EC517F513ECF6F0A5
:10D3500012C555F513C556F51200610064F6D9F4EF
:10D36000610068F6DAF4DEC4F6F4DDC4F7F4000E0A
:10D37000F86E0800F550250AD8A48FD2610064F633
:10D38000D9F4610068F6DAF4DE2A000EDD22000E20
:10D39000C66F000EC56FC5C5C9F5C6C5CAF5C76954
:10D3A000C869610064F6D9F4610068F6DAF4DEC495
:10D3B000F6F4DDC4F7F4000EF86E0800F5502A0A02
:10D3C000D8A42DD0610064F6D9F4610068F6DAF4CF
:10D3D000DE2A000EDD2261006CF6D9F4610070F6E1
:10D3E000DAF461007CF35CF5020EDE2661007CF36A
:10D3F0005DF5000EDD22610070F5D9F4610074F571
:10D40000DAF4610078F3C5F5610074F3C6F5C6AFD0
:10D4100040D0C981C56DC61FD8B0C62B3AD06100B7
:10D4200064F6D9F4610068F6DAF4610078F308F57F
:10D43000610074F309F545ECF3F008C5C5F509C5BD
:10D44000C6F509D0610064F6D9F4610068F6DAF433
:10D45000DE2A000EDD22D00E5C6EFF0E5D6E6100D6
:10D4600064F6D9F4610068F6DAF4DEC4F6F4DDC4DB
:10D47000F7F4000EF86E0800F5505E6E5F6A5C50BF
:10D480005E265D505F225F5004E10A0E5E5CD8A00C
:10D49000D9D7610064F6D9F4610068F6DAF4DEC425
:10D4A000F6F4DDC4F7F4000EF86E0800F5502E0A0D
:10D4B000D8A47FD0000E0501C86F000EC76F6100B1
:10D4C00064F6D9F4610068F6DAF4DE2A000EDD2293
:10D4D000610064F6D9F4610068F6DAF4DEC4F6F4AB
:10D4E000DDC4F7F4000EF86E0800F5502A0AD8A43F
:10D4F00026D0610064F6D9F4610068F6DAF4DE2A19
:10D50000000EDD2261006CF6D9F4610070F6DAF4E9
:10D5100061007CF35CF5020EDE2661007CF35DF5B4
:10D52000000EDD22610070F5D9F4610074F5DAF4C3
:10D53000610078F3C7F5610074F3C8F53AD0610073
:10D5400064F6D9F4610068F6DAF4610078F308F55E
:10D55000610074F309F545ECF3F008C5C7F509C59A
:10D56000C8F509D0610064F6D9F4610068F6DAF410
:10D57000DE2A000EDD22D00E5C6EFF0E5D6E6100B5
:10D5800064F6D9F4610068F6DAF4DEC4F6F4DDC4BA
:10D59000F7F4000EF86E0800F5505E6E5F6A5C509E
:10D5A0005E265D505F225F5004E10A0E5E5CD8A0EB
:10D5B000D9D7610064F6D9F4610068F6DAF4DEC404
:10D5C000F6F4DDC4F7F4000EF86E0800F550076EAF
:10D5D000086AF3ECF7F007500501A16FA151D8B428
:10D5E00045D0610064F6D9F4610068F6DAF46100B0
:10D5F00078F35CF5610074F35DF5010E5C26000EB6
:10D600005D22610070F5F6F4610074F5F7F4000E28
:10D61000F86E0800F550076E086AF3ECF7F0075053
:10D620000501A26FA251D8B421D0610064F6D9F4EB
:10D63000610068F6DAF4610078F35CF5610074F378
:10D640005DF5020E5C26000E5D22610070F5F6F4B9
:10D65000610074F5F7F4000EF86E0800F550076EDF
:10D66000086AF3ECF7F007500501A36F660EA119E5
:10D67000D8A450D0610064F6D9F4610068F6DAF4F9
:10D68000DEC4F6F4DDC4F7F4000EF86E08006100A5
:10D69000D4F3A4F5610064F6D9F4610068F6DAF415
:10D6A000DE2A000EDD2261006CF6D9F4610070F60E
:10D6B000DAF461007CF35CF5040EDE2661007CF395
:10D6C0005DF5000EDD22610070F5D9F4610074F59E
:10D6D000DAF4610078F39DF5610078F39EF561005E
:10D6E00078F39FF5610078F3A0F597C555F598C5D7
:10D6F00056F59DC557F59EC558F59FC559F5A0C56A
:10D700005AF5A4C55BF598ECE4F055C597F556C5F8
:10D7100098F51200A10E016E050E026EFB0E036E4F
:10D72000FF0E046E000E066E020E056E53ECF5F051
:10D7300001500210D8A479D0610064F6D9F46100D8
:10D7400068F6DAF4610078F35CF5610074F35DF576
:10D75000010E5C26000E5D22610070F5F6F461009A
:10D7600074F5F7F4000EF86E08006100D4F3A4F528
:10D77000BF0E5C6EFF0E5D6E610064F6D9F4610051
:10D7800068F6DAF4DEC4F6F4DDC4F7F4000EF86EE1
:10D790000800F5505E6E5F6A5C505E265D505F2249
:10D7A0005F5002E11A0E5E5C61006CF6D9F4610014
:10D7B00070F6DAF461007CF35CF5040EDE2661009D
:10D7C0007CF35DF5000EDD22610070F5D9F4610097
:10D7D00074F5DAF4610078F39DF5610078F39EF555
:10D7E000610078F39FF5610078F3A0F5020E610007
:10D7F00064F6D9F4610068F6DAF4DE26000EDD2264
:10D8000097C555F598C556F59DC557F59EC558F56C
:10D810009FC559F5A0C55AF5A4C55BF598ECE4F091
:10D8200055C597F556C598F51200610064F6D9F410
:10D83000610068F6DAF4DEC4F6F4DDC4F7F4000E35
:10D84000F86E0800F550250AD8A419D0610064F6D6
:10D85000D9F4610068F6DAF4DE2A000EDD22000E4B
:10D86000036E250E026E97C504F598C505F51FECED
:10D87000F7F0000E0501986F010E976F120061001E
:10D8800064F6D9F4610068F6DAF4DE2A000EDD22CF
:10D89000000E986F000E976F1200610064F6D9F4C5
:10D8A000610068F6DAF4DEC4F6F4DDC4F7F4000EC5
:10D8B000F86E0800F550026E036A97C504F598C526
:10D8C00005F51FECF7F0610064F6D9F4610068F625
:10D8D000DAF4DE2A000EDD22CCD71250800B1B6E4C
:10D8E00012501224216E11BE21802150D8B40DD0C7
:10D8F0002128D8A408D0000E0F6E000E106E000E66
:10D90000116E000E126E118E08D0000E0F6E000EFA
:10D91000106E000E116E000E126E1650800B1B1A48
:10D92000165016241C6E15BE1C801C50D8B40DD089
:10D930001C28D8A408D0000E136E000E146E000E22
:10D94000156E000E166E158E08D0000E136E000EAA
:10D95000146E000E156E000E166E1C50D8B403D057
:10D960002150D8A409D0000E0F6E000E106E000ECC
:10D97000116E000E126E120015500F026100CCF3F2
:10D9800026F56100D0F327F526501D6E1E6A1F6A2A
:10D99000206A2750226E236A246A256A14501002D6
:10D9A0006100CCF326F56100D0F327F526501D2643
:10D9B000000E1E221F22202227502226000E232284
:10D9C00024222522135011026100CCF326F56100B8
:10D9D000D0F327F526501D26000E1E221F222022DE
:10D9E00027502226000E2322242225221FC520F59F
:10D9F0001EC51FF51DC51EF51D6A135010026100DE
:10DA0000CCF326F56100D0F327F526501D262750CC
:10DA10001E22000E1F22000E202214500F02610051
:10DA2000CCF326F56100D0F327F526501D262750AC
:10DA30001E22000E1F22000E20221FC520F51EC52B
:10DA40001FF51DC51EF51D6A13500F026100CCF3B2
:10DA500026F56100D0F327F526501D2627501E22FB
:10DA6000000E1F22000E2022155010026100CCF380
:10DA700026F56100D0F327F52650222627502322D1
:10DA8000000E2422000E2522145011026100CCF356
:10DA900026F56100D0F327F52650222627502322B1
:10DAA000000E2422000E2522155011026100CCF335
:10DAB00026F56100D0F327F52650176E2750186E13
:10DAC000196A1A6A19C51AF518C519F517C518F58E
:10DAD000176A1750222618502322195024221A5050
:10DAE000252220502226000E2322242225221FC573
:10DAF00020F51EC51FF51DC51EF51D6A1C5021C54C
:10DB000017F5186A1726000E1822820E1724266EA3
:10DB1000FF0E1820276E0FD0D890223623362436D9
:10DB2000253620BE2280D8901D361E361F36203660
:10DB30002606D8A0270624AEEFD7000E1C6E20AE16
:10DB400017D0FF0E1D14176EFF0E1E14186EFF0E59
:10DB50001F14196E7F0E20141A6E1750181019100A
:10DB60001A10D8B403D0010E1C6E02D022B0FBD71D
:10DB70001C50D8B41FD0010E2226000E23222422CE
:10DB8000252225A017D022C517F523C518F524C5D1
:10DB900019F525C51AF51A341A3219321832173206
:10DBA00017C522F518C523F519C524F51AC525F59D
:10DBB000264A272A27BE0DD0275003E12628D8A0C1
:10DBC00008D0000E226E000E236E800E246E7F0E93
:10DBD00020D027BE05D027500EE12604D8B00BD0A8
:10DBE000000E226E000E236E000E246E000E256EB7
:10DBF000000E1B6E0FD026C521F5FF0E2216FF0E5C
:10DC000023167F0E2416000E251621B0248ED890E0
:10DC10002130256E1B50251222C50FF523C510F5A6
:10DC200024C511F525C512F51200080E0001B16FCB
:10DC3000020E0201616F080E636F0A0E646F090E17
:10DC4000676F000E0001D56F000ED86F7F0ED96F81
:10DC50007F0EDA6F7F0EDB6F020EDC6F040EDD6F5E
:10DC6000000EDE6F000EDF6F800ED76F840ED66F52
:10DC7000010ED56F020ED86F030ED96F7F0EDA6FCB
:10DC80007F0EDB6F020EDC6F040EDD6F100EDE6F99
:10DC9000400EDF6F000ED76F820ED66F020ED56F6B
:10DCA000020ED86F060ED96F7F0EDA6F7F0EDB6F14
:10DCB000020EDC6F040EDD6F100EDE6F400EDF6FA4
:10DCC000000ED76F820ED66F070ED56F080ED86F75
:10DCD000330ED96F7F0EDA6F7F0EDB6F020EDC6FB3
:10DCE000080EDD6F100EDE6F400EDF6F000ED76F77
:10DCF000820ED66F3F0E0201026F04010093C6929E
:10DD0000000E436F000E446F040E456F1A0E476FEE
:10DD10004691468B468F009BBE8AC69A000E186FAE
:10DD20001969C968000E106F1169C86808950985DE
:10DD3000C78408930983C78208910981C780009529
:10DD40000185C6840099BE88C6982095C294CA945D
:10DD50000091BE90C69008990989C7882091C29009
:10DD6000CA902093C292CA920897BF86C796010EA6
:10DD70000201D56FA00ED46FD189D18B0401009F11
:10DD8000C68E070E0201766F0401009DBE8CC69CF4
:10DD9000260E0201076FD28F000E136E240E146E32
:10DDA000F40E156E410E166E04014351016E44517E
:10DDB000026E4551036E046A000EE5ECF3F001C5F6
:10DDC0000FF502C510F503C511F504C512F56DEC8C
:10DDD000ECF00FC528F510C529F511C52AF512C5B7
:10DDE0002BF5000E2C6E240E2D6E740E2E6E490E29
:10DDF0002F6E2DECF1F028C5B5F529C5B6F52AC56D
:10DE0000B7F52BC5B8F5D70E0501AD6FFF0EAE6F98
:10DE1000B5C5AFF5B6C5B0F5B7C5B1F5B8C5B2F57E
:10DE2000B5ECF8F0000EBA6F000EB96F000EB92510
:10DE3000D96E060EBA21DA6E000EDF6EB94BBA2B20
:10DE4000BABFF4D7200EBA5DD8A0F0D7550E0401A2
:10DE5000596FAA0E596F5991080E5D6F000E5E6FD3
:10DE6000000E5F6F550E596FAA0E596F5981B7900A
:10DE7000D68E000EE06E000E0001D56F010EF86E1A
:10DE8000BE9A06D0CFA4FED7C868C968B7B0C2840E
:10DE9000D4B1FED7D0C4F6F4D1C4F7F4D785BE9878
:10DEA000D795D4A31CD0C86AC96AF7AE08D0F6903B
:10DEB0000900F5C4C0F40800F5C4C1F40ED0200E6A
:10DEC000F7600DD0F6C4E9F4E990F750060FEA6E5A
:10DED000EFC4C0F4E980EFC4C1F4BE88D3D7D4A5A1
:10DEE00014D0200EF7600FD0F6C4E9F4F750060FF7
:10DEF000EA6EF6B003D0E990D0C4EFF4CFB803D007
:10DF0000E980D1C4EFF4BE88C1D7CFB416D0C86AB7
:10DF1000C96AF604D8A409D0000EB7B0010EB7B094
:10DF2000010FB7B2010FC16E06D0F650D8A403D0CE
:10DF3000C7C2C0F4C294BE88A5D7CFB204D0F650F1
:10DF4000D8B4D0C4C9F2BE88A1D7FBEFFFF004500B
:10DF5000800B0D6E045004240F6E03BE0F800F5013
:10DF6000D8B40DD00F28D8A408D0000E016E000E32
:10DF7000026E000E036E000E046E038E06D0000EBD
:10DF8000016E000E026E000E036E000E046E08504D
:10DF9000800B0E6E0D500E18D8A40D8C085008245E
:10DFA0000E6E07BE0E800E50D8B40DD00E28D8A429
:10DFB00008D0000E056E000E066E000E076E000EF5
:10DFC000086E078E06D0000E056E000E066E000E5F
:10DFD000076E000E086E0F500E5CD8B022D00DAC4C
:10DFE00002D0800E0D1A0FC510F50EC50FF510C525
:10DFF0000EF501C510F505C501F510C505F502C5FD
:10E0000010F506C502F510C506F503C510F507C5E0
:10E0100003F510C507F504C510F508C504F510C5CE
:10E0200008F5000E106E0F500EC509F50A6A095E5C
:10E03000000E0A5A0ABE2CD00A5004E11A0E095CDE
:10E04000D8A026D00150021003100410D8B402D07A
:10E05000010E01D0000E106E000E016E000E026E59
:10E06000000E036E000E046E0EC50FF515D010A045
:10E0700005D0D89010300109106E02D0D89010321F
:10E0800001B0108E043404320332023201320F2AFE
:10E090000E500F5CD8A0EBD70DBC28D00F50D8A4E1
:10E0A00009D0000E016E000E026E000E036E000E0F
:10E0B000046E12000550012606500222075003226A
:10E0C0000850042204A071D010A005D0D8901030C0
:10E0D0000109106E02D0D890103201B0108E0434B5
:10E0E00004320332023201320F2A5FD00550015C44
:10E0F00006500258075003580450800A096E085011
:10E10000800A0958D8B025D00150055C096E02502C
:10E1100006580A6E035007580B6E045008580C6ED0
:10E12000FF0E0924016EFF0E0A20026EFF0E0B2067
:10E13000036EFF0E0C20046E800E0D1A106C105032
:10E14000D8A40FD0010E0126000E022203220422C1
:10E1500008D00550015E0650025A0750035A085075
:10E16000045A0150021003100410D8A41CD01050FF
:10E17000D8A419D0000E016E000E026E000E036EC0
:10E18000000E046E1200D8900136023603360436B3
:10E1900010BE018010A002D0D88001D0D8901036D7
:10E1A0000F50D8A40F0603AEEED7000E0E6E10AEC1
:10E1B0000BD010C509F57F0E0916D8B403D0010E97
:10E1C0000E6E02D001B0FBD70E50D8B420D0010E95
:10E1D0000126000E02220322042204A018D001C549
:10E1E00009F502C50AF503C50BF504C50CF50C3499
:10E1F0000C320B320A32093209C501F50AC502F5A3
:10E200000BC503F50CC504F50F28D8A40F2A0F2859
:10E21000D8B403D00F50D8A40DD0000E016E000E5C
:10E22000026E000E036E000E046E0F50D8A402D0D2
:10E23000000E0D6E0FA002D0038E01D0039ED89069
:10E240000F30046E0DBE048E01C501F502C502F546
:10E2500003C503F504C504F512002B50800B386E7E
:10E260002B502B243F6E2ABE3F803F50D8B40DD098
:10E270003F28D8A408D0000E286E000E296E000E8C
:10E280002A6E000E2B6E2A8E06D0000E286E000E0F
:10E29000296E000E2A6E000E2B6E2F50800B381A3E
:10E2A0002F502F24406E2EBE40804050D8B40DD049
:10E2B0004028D8A408D0000E2C6E000E2D6E000E43
:10E2C0002E6E000E2F6E2E8E06D0000E2C6E000EBF
:10E2D0002D6E000E2E6E000E2F6E2C502D102E1057
:10E2E0002F10D8A417D0000E286E000E296E000E35
:10E2F0002A6E000E2B6E800E2A127F0E2B123850C3
:10E300002B1228C528F529C529F52AC52AF52BC5BC
:10E310002BF512003F50D8A409D0000E286E000E35
:10E32000296E000E2A6E000E2B6E120040503FC563
:10E3300030F5316A305E000E315A7F0E3024396E6E
:10E34000000E31203A6E28C534F529C535F52AC5A9
:10E3500036F52BC537F5000E286E000E296E000E1F
:10E360002A6E000E2B6E000E3B6E000E3C6E000EF1
:10E370003D6E000E3E6E000E406E28D04050D8B468
:10E3800011D0D8903436353636363736D8902836D0
:10E3900029362A362B363EBE2880D8903B363C366E
:10E3A0003D363E362C50345C2D5035582E50365864
:10E3B0002F503758D8A009D03E8C2C50345E2D50A9
:10E3C000355A2E50365A2F50375A402A190E40646B
:10E3D000D5D73450351036103710D8B411D03B8013
:10E3E0000FD0D890283629362A362B363EBE2880C4
:10E3F000D8903B363C363D363E363906D8A03A06F4
:10E400002AAEEFD7000E406E3EAE17D0FF0E3B1483
:10E41000306EFF0E3C14316EFF0E3D14326E7F0ED7
:10E420003E14336E3050311032103310D8B403D054
:10E43000010E406E02D028B0FBD74050D8B41FD098
:10E44000010E2826000E29222A222B222BA017D0CB
:10E4500028C530F529C531F52AC532F52BC533F568
:10E460003334333232323132303230C528F531C5AF
:10E4700029F532C52AF533C52BF5394A3A2A3ABE71
:10E4800010D03A5003E13928D8A00BD0000E3A6ED4
:10E490003968000E286E000E296E000E2A6E000EDE
:10E4A0002B6E3ABE05D03A5011E13904D8B00ED0E7
:10E4B000000E3A6E000E396E000E286E000E296EA8
:10E4C000000E2A6E000E2B6E000E386E39C53FF519
:10E4D0003FA002D02A8E01D02A9ED8903F302B6ECA
:10E4E0000ED7BBC551F5BCC552F5BDC553F5BEC56C
:10E4F00054F541C551F542C552F543C553F544C5E0
:10E5000054F5810E456EFF0E466E51C547F552C556
:10E5100048F553C549F554C54AF5180E05D0D890AD
:10E520004A32493248324732E82EF9D7475045241B
:10E530004F6E000E4620506E50BE0FD0505004E17A
:10E54000170E4F5CD8A009D041C541F542C542F530
:10E5500043C543F544C544F5120050BE5BD04FC5DA
:10E5600045F5FF0E466EFF0E476E7F0E486E000E9D
:10E57000496E456601D007D04934493248324732A6
:10E580004632452EF6D746C54BF547C54CF548C52E
:10E590004DF549C54EF54B505114456E4C50521433
:10E5A000466E4D505314476E4E505414486E4550AD
:10E5B000461047104810D8B4C7D751C545F552C5C5
:10E5C00046F553C547F554C548F5200E05D0D890FB
:10E5D0004832473246324532E82EF9D74550D8B452
:10E5E00008D04B5051264C5052224D5053224E5081
:10E5F00054224B1C456E4C1C466E4D1C476E4E1CE7
:10E60000486E4550511646505216475053164850C2
:10E61000541632D051C545F552C546F553C547F598
:10E6200054C548F5200E05D0D890483247324632BE
:10E630004532E82EF9D7456608D0000E516E000E1F
:10E64000526E000E536E000E16D0D8905134456EA7
:10E650005234466E5334476E5434486E455046101B
:10E6600047104810D8B408D0000E516E000E526EFC
:10E67000800E536EBF0E546E51C541F552C542F522
:10E6800053C543F554C544F51200000E116E000E3B
:10E69000106E000E0F6E000E0E6E02D0084A092A90
:10E6A000610020F4F6F4610024F4F7F4000EF86E33
:10E6B0000800F550200AD8B4F1D7F70E0A6EFF0E05
:10E6C0000B6E610020F4F6F4610024F4F7F4000E00
:10E6D000F86E0800F5500C6E0D6A0A500C260B50AF
:10E6E0000D220D500CE1050E0C5CD8B008D0D6D729
:10E6F000000E0F6E010E0E6E084A092A36D0610018
:10E7000020F4F6F4610024F4F7F4000EF86E08002B
:10E71000F5500A6E0B6A0B50000AD8A426D00A5096
:10E720002B0AD8B4E9D7060AD8B4E2D71ED010C550
:10E7300001F511C502F5000E046E0A0E036EA0EC81
:10E74000F8F0610020F4F6F4610024F4F7F4000E10
:10E75000F86E0800F550015E000E025A300E0124DA
:10E76000106E000E0220116EC7D7D00E0A6EFF0E7B
:10E770000B6E610020F4F6F4610024F4F7F4000E4F
:10E78000F86E0800F5500C6E0D6A0A500C260B50FE
:10E790000D220D5004E10A0E0C5CD8A0C8D70E5013
:10E7A0000F10D8A40DD010C50AF511C50BF50A1E1F
:10E7B0000B1E0A4A0B2A0AC508F50BC509F51200FB
:10E7C00010C508F511C509F51200096E0950D8A445
:10E7D00004AE1AD001C505F502C506F503C507F557
:10E7E00004C508F5051E061E071E081E052A000E94
:10E7F00006220722082205C50BF506C50CF507C53C
:10E800000DF508C50EF508D001C50BF502C50CF5D0
:10E8100003C50DF504C50EF50150021003100410D8
:10E82000D8A409D0000E016E000E026E000E036E19
:10E83000000E046E1200960E0A6E06D00A2AD890B8
:10E840000E320D320C320B32000E0B14056E000E20
:10E850000C14066E000E0D14076EFE0E0E14086EDC
:10E860000550061007100810D8B40DD0E7D70A2AB3
:10E87000010E0B26000E0C220D220E22D8900E3215
:10E880000D320C320B32000E0B14056E000E0C1400
:10E89000066E000E0D14076EFF0E0E14086E055066
:10E8A000061007100810D8B407D0E1D70A06D89090
:10E8B0000B360C360D360E360DBE03D0020E0A6036
:10E8C000F5D70AA00D9ED8900A320AC505F5066A4A
:10E8D000076A086A05C508F5076A066A056A0550E9
:10E8E0000B1206500C1207500D1208500E12095050
:10E8F000D8A404AE01D00E8E0BC501F50CC502F5EF
:10E900000DC503F50EC504F51200000E2814306E77
:10E91000000E2914316E800E2A14326E7F0E2B14D5
:10E92000336E3050311032103310D8A408D0000E9E
:10E93000286E000E296E000E2A6E000E2B6E000E41
:10E940002C14306E000E2D14316E800E2E14326E8B
:10E950007F0E2F14336E3050311032103310D8A484
:10E9600008D0000E2C6E000E2D6E000E2E6E000EC6
:10E970002F6E2BAE09D0286C291ED8B0292A2A1E4A
:10E98000D8B02A2A800E2B562FAE09D02C6C2D1E03
:10E99000D8B02D2A2E1ED8B02E2A800E2F56000E4B
:10E9A000281A000E291A000E2A1A800E2B1A000EA1
:10E9B0002C1A000E2D1A000E2E1A800E2F1A2C5013
:10E9C000285C2D5029582E502A582F502B58D8B03B
:10E9D00002D0D8901200D8801200BFC50BF5C0C578
:10E9E0000CF5C1C50DF5C2C50EF501C50BF502C587
:10E9F0000CF503C50DF504C50EF50BC505F50CC5E5
:10EA000006F50DC507F50EC508F5180E05D0D8900A
:10EA10000832073206320532E82EF9D70550096E62
:10EA20000A6A09500A10D8A419D0D8900B34056E80
:10EA30000C34066E0D34076E0E34086E0550061049
:10EA400007100810D8A405D0000E026E020E016E49
:10EA50001200000E026E030E016E120009280A1049
:10EA6000D8A41CD00BC505F50CC506F50DC507F5DA
:10EA70000EC508F5090ED890053606360736083655
:10EA8000E82EF9D70550061007100810D8A402D0B8
:10EA9000010E01D0000E016E026A1200000E026E1D
:10EAA000040E016E120001C508F502C509F503C583
:10EAB0000AF504C50BF50506D8A0060605280FE1E2
:10EAC0000628D8A40CD0000E026E000E016E1200B3
:10EAD000084A092A0A4A0B2A0506D8A00606610038
:10EAE00020F4D9F4610024F4DAF4DF50D8B426D04D
:10EAF000610028F4F6F461002CF4F7F4000EF86ECF
:10EB00000800F5500009D8B419D005500610D8B443
:10EB100015D0610020F4D9F4610024F4DAF4DF5058
:10EB2000076E610028F4F6F461002CF4F7F4000E8F
:10EB3000F86E0800F5500718D8B4CAD7610020F461
:10EB4000D9F4610024F4DAF4DF50076E610028F490
:10EB5000F6F461002CF4F7F4000EF86E0800F5509E
:10EB6000075C016E026AD8A0020612000334043466
:10EB70000A6E0A50D8A409D0000E016E000E026E73
:10EB8000000E036E000E046E120001C505F502C5ED
:10EB900006F503C507F504C508F5200E05D0D89085
:10EBA0000832073206320532E82EF9D70550096ED1
:10EBB000038EFF0E0116FF0E0216FF0E0316000E47
:10EBC0000416960E0A5E0AAE0DD00A50800A970F00
:10EBD000D8A0D2D7D89004320332023201320A3E92
:10EBE000F9D70DD01F0E0A6407D0C6D7D8900136CA
:10EBF0000236033604360A060A50D8A4F7D709505D
:10EC0000D8B408D0041E031E021E016C000E02229E
:10EC10000322042201C501F502C502F503C503F56F
:10EC200004C504F512000501C9A10AD014C50BF5ED
:10EC300015C50CF512C50DF513C50EF510ECF8F061
:10EC400017BE05D016C51BF517C51CF504D0000E60
:10EC50001C6E000E1B6E000E1A6E000E196E0CD08C
:10EC6000000E036E200E026E12C504F513C505F5E5
:10EC70001FECF7F0194A1A2A1B50195C1A50800A27
:10EC8000186E1C50800A1858D8A0EAD70501C9B1DF
:10EC90000AD014C50BF515C50CF512C50DF513C535
:10ECA0000EF510ECF8F014C501F515C502F55CEC95
:10ECB000F8F01B500124126E1C500220136E12003B
:10ECC000000E0114096E000E02140A6E800E031469
:10ECD0000B6E7F0E04140C6E09500A100B100C10F2
:10ECE000D8A408D0000E016E000E026E000E036E56
:10ECF000000E046E000E0514096E000E06140A6E56
:10ED0000800E07140B6E7F0E08140C6E09500A104B
:10ED10000B100C10D8A408D0000E056E000E066E65
:10ED2000000E076E000E086E055001180AE106502D
:10ED3000021807E10750031804E108500418D8B47A
:10ED400002D0D8901200D8801200000E066E04AED9
:10ED500006D0036C041ED8B0042A010E066E02AE63
:10ED600006D0016C021ED8B0022A010E061A000E4F
:10ED7000086E000E076E03500410D8B41CD0010EAC
:10ED8000056E04D0D89003360436052A04AEFAD7AF
:10ED9000D890073608360350015C04500258D8A0BA
:10EDA00005D00350015E0450025A0780D890043207
:10EDB0000332052EEDD70650D8B404D0076C081ED8
:10EDC000D8B0082A07C501F508C502F51200000EE3
:10EDD000066E02AE06D0016C021ED8B0022A010EE9
:10EDE000066E04AE04D0036C041ED8B0042A03508F
:10EDF0000410D8B418D0010E056E04D0D890033694
:10EE00000436052A04AEFAD70350015C04500258B8
:10EE1000D8A004D00350015E0450025AD8900432A6
:10EE20000332052EF1D70650D8B404D0016C021E6F
:10EE3000D8B0022A01C501F502C502F5120004503E
:10EE40000510D8B404D004500510D8A404D0025042
:10EE5000C8ECF8F0120020EE09F00450D926055055
:10EE6000DA22DE50DE10D8B416D020EE09F00450BD
:10EE7000D9260550DA2210EE03F00450E1260550A1
:10EE8000E222DE50E65CE650800A0A6EDE50800A1E
:10EE90000A58D8B0120020EE03F00450D9260550CD
:10EEA000DA22DE2A000EDD221200A7C5ABF5A8C5C6
:10EEB000ACF5000EC46F000EC36F13D0A5C597F557
:10EEC000A6C598F5AB0E996F050E9A6FA9C59BF56F
:10EED000AAC59CF5ADECE9F005019751C3279851FF
:10EEE000C4236100ACF6F6F46100B0F6F7F4000E4E
:10EEF000F86E0800F5500009D8A4E0D7C3C5A5F501
:10EF0000C4C5A6F5120003C507F504C508F501C57B
:10EF100009F502C50AF50750056E0850066E074A46
:10EF2000082A610014F4F6F4610018F4F7F4000EF6
:10EF3000F86E610024F4D9F4610028F4DAF4094A87
:10EF40000A2A360EF76403D00800F55005D0F6C43F
:10EF5000E1F4F7C4E2F4E750DF6EDF50D8B41200FA
:10EF6000DAD7000E2C1A000E2D1A000E2E1A800E63
:10EF70002F1A28C501F529C502F52AC503F52BC5A9
:10EF800004F52CC505F52DC506F52EC507F52FC5CD
:10EF900008F5A7ECEFF001C528F502C529F503C572
:10EFA0002AF504C52BF51200010E076E200E01187C
:10EFB0000210D8B414D0F70E036EFF0E046E01C514
:10EFC00005F502C506F50350052604500622065035
:10EFD00004E1050E055CD8A002D0000E076E07C53F
:10EFE00001F5026A1200BF0E096EFF0E0A6E07C518
:10EFF0000BF508C50CF509500B260A500C220C50D5
:10F000000AE11A0E0B5CD8B006D0200E0710076E6E
:10F010000850086E120007C507F508C508F512006C
:10F02000000E116E000E106E0BD00FC502F5036AB4
:10F030000DC504F50EC505F51FECF7F0104A112AB1
:10F0400010500B24D96E11500C20DA6EDF500F6E69
:10F050000F50D8B41200E9D7BF0E036EFF0E046E36
:10F0600001C505F502C506F5035005260450062224
:10F07000065006E11A0E055CD8B002D0010E01D090
:10F08000000E016E026A1200D00E036EFF0E046EB7
:10F0900001C505F502C506F50350052604500622F4
:10F0A000065006E10A0E055CD8B002D0010E01D070
:10F0B000000E016E026A120001C503F502C504F5D7
:10F0C00002D0014A022A610004F4D9F4610008F474
:10F0D000DAF4DF50D8A4F5D70350015C016E045078
:10F0E0000258026E12000150021003100410D8B42E
:10F0F00008D0000E011A000E021A000E031A800E2C
:10F10000041A01C501F502C502F503C503F504C5DE
:10F1100004F5120009EE00F2500EEE6AE806FDE179
:10F1200001EEBBF1120EEE6AE806FDE10401080EE5
:10F130005D6F000E5E6F000E5F6F000115EFEEF069
:10F14000015003026100CCF305F56100D0F306F530
:10F1500001500402F350062602500302F350062623
:10F1600005C501F506C502F51200AF0EB36F050E19
:10F17000B46F000EA56F000EA66FADC5A7F5AEC5A6
:10F18000A8F5B30EA96F050EAA6F55ECF7F01200A3
:0EF19000016EB7A2FED7610004F4C9F21200AE
:0CF1A000B7A002D0C2841100C29411007C
:05FFF000EA00C000F072
:04FFF6008AEFF8F0A6
:02FFFC001100F2
:020000040020DA
:10000000FFFFFFFFFFFFFFFFFFFFFFFFFFFFFFFF00
:10001000FFFFFFFFFFFFFFFFFFFFFFFFFFFFFFFFF0
:10002000FFFFFFFFFFFFFFFFFFFFFFFFFFFFFFFFE0
:10003000FFFFFFFFFFFFFFFFFFFFFFFFFFFFFFFFD0
:020000040030CA
:100000008C2FFFF79FFFFFFFFFFFFFFFFFFFFFFFAB
:10001000FFFFFFFFFFFFFFFFFFFFFFFFFFFFFFFFF0
:03002000FFFFFFE0
:00000001FF
