:04000000FBEFFFF023
:10000800FF7FFF7FFF7FFF7FFF7FFF7FFF7FFF7FF8
:10001800FF7FFF7FFF7FFF7FFF7FFF7FFF7FFF7FE8
:10002800FF7FFF7FFF7FFF7FFF7FFF7FFF7FFF7FD8
:10003800FF7FFF7FFF7FFF7FFF7FFF7FFF7FFF7FC8
:10004800FF7FFF7FFF7FFF7FFF7FFF7FFF7FFF7FB8
:10005800FF7FFF7FFF7FFF7FFF7FFF7FFF7FFF7FA8
:10006800FF7FFF7FFF7FFF7FFF7FFF7FFF7FFF7F98
:10007800FF7FFF7FFF7FFF7F4200FF7FFF7FFF7FC4
:10008800FF7FFF7FFF7FFF7FFF7FFF7FFF7FFF7F78
:100098005E7CFF7FFF7FFF7F4200FF7FFF7FFF7F48
:1000A800FF7FFF7FFF7FFF7FFF7FFF7FFF7FFF7F58
:1000B800FF7FFF7FFF7FFF7FFF7FFF7FFF7FFF7F48
:1000C800FF7FFF7FFF7FFF7FFF7FFF7FFF7FFF7F38
:1000D800FF7FFF7FFF7FFF7FFF7FFF7FFF7FFF7F28
:1000E8004200FF7FFF7FFF7FFF7FFF7FFF7FFF7F54
:1000F800FF7FFF7FFF7FFF7FFF7FFF7FFF7FFF7F08
:02010800FF00F6
:10FFD600000D0A4D455A5632302025322E33664DD5
:10FFE600487A0D0A00494E46004E414E00696E663B
:09FFF600006E616E006C660000F3
:020000040001F9
:108000005053E4008AE0A084043C80741EFEC0A2A9
:1080100084043C707504B017E6018B1E82048AC488
:108020008807FEC380E37F891E82045B58FBCF5321
:10803000A084043C0074F9FAA084043C7075088A9A
:10804000E0B037E6018AC4FEC8A284048B1E800417
:108050008A07FEC380E37F891E80045BFBC350E474
:1080600001240174FA58E600C3FCAC3C007405E836
:10807000ECFFEBF6C3E8B7FFCFA08404CFE8DEFF48
:10808000CF8CC88ED88EC08ED0BC0005C706EC033E
:108090007580A3EE03C706F0037980A3F203C70639
:1080A000F4037D80A3F603C706F8030082A3FA0356
:1080B000C706FC030080A3FE03BA0100B000EEEE89
:1080C000EEB040EEB91000E2FEB04EEEB037EE3248
:1080D000C0A28404A10004A38004A38204FBE91FBE
:1080E00001FFFFFFFFFFFFFFFFFFFFFFFFFFFFFF9E
:1080F000FFFFFFFFFFFFFFFFFFFFFFFFFFFFFFFF90
:10810000FFFFFFFFFFFFFFFFFFFFFFFFFFFFFFFF7F
:10811000FFFFFFFFFFFFFFFFFFFFFFFFFFFFFFFF6F
:10812000FFFFFFFFFFFFFFFFFFFFFFFFFFFFFFFF5F
:10813000FFFFFFFFFFFFFFFFFFFFFFFFFFFFFFFF4F
:10814000FFFFFFFFFFFFFFFFFFFFFFFFFFFFFFFF3F
:10815000FFFFFFFFFFFFFFFFFFFFFFFFFFFFFFFF2F
:10816000FFFFFFFFFFFFFFFFFFFFFFFFFFFFFFFF1F
:10817000FFFFFFFFFFFFFFFFFFFFFFFFFFFFFFFF0F
:10818000FFFFFFFFFFFFFFFFFFFFFFFFFFFFFFFFFF
:10819000FFFFFFFFFFFFFFFFFFFFFFFFFFFFFFFFEF
:1081A000FFFFFFFFFFFFFFFFFFFFFFFFFFFFFFFFDF
:1081B000FFFFFFFFFFFFFFFFFFFFFFFFFFFFFFFFCF
:1081C000FFFFFFFFFFFFFFFFFFFFFFFFFFFFFFFFBF
:1081D000FFFFFFFFFFFFFFFFFFFFFFFFFFFFFFFFAF
:1081E000FFFFFFFFFFFFFFFFFFFFFFFFFFFFFFFF9F
:1081F000FFFFFFFFFFFFFFFFFFFFFFFFFFFFFFFF8F
:10820000EB06A084043C00C3EB03E99000EB04D12F
:108210008C2297BB45088BE3E95D25BA1685B568C6
:10822000BB450887DA8A0787DA88074342FECD759F
:10823000F28BE3E88C05E8290DA2F408A24309BB00
:10824000A7099F439E8AC70AC3740E8A078AE8F665
:10825000D088073A07882F74E99F4B9EBAA609E891
:1082600055077242BACEFF891EF90803DA891EA4A7
:1082700008E816058B1EA408BAEFFF03DABA430913
:108280008AC32AC28AD88AC71AC68AF853BBBD8253
:10829000E814165BE8881FBBAE82E80A16BCB0087B
:1082A000E81F05E9C203BB0483E8FB15EBFE20428F
:1082B0007974657320667265650D0A0000494E5435
:1082C000454C383038302042617365642078383648
:1082D0002042415349432056657220342E37620DA7
:1082E0000A436F70797269676874202843292031C6
:1082F000393738206279204D6963726F736F667405
:108300000D0A00004D656D6F72792073697A6520E2
:108310006E6F7420656E6F7567680D0A546865200E
:1083200073797374656D2069732073746F707065F1
:10833000642E0D0A0000D59F0BA1EF9F4808F4960C
:10834000E99B309786A395A4FD9DE6A324A52AA5C5
:1083500097A5ADA5469C1CA69B08CE9A0598A19B07
:10836000E19AFB9A46A600A70D9B4B9B5A9BC54ED4
:1083700044C64F52CE455854C4415441C94E50553D
:1083800054C4494DD2454144CC4554C74F544FD2B3
:10839000554EC946D24553544F5245C74F53554287
:1083A000D2455455524ED2454DD3544F50CF5554CB
:1083B000CF4ECE554C4CD7414954C44546D04F4B77
:1083C00045C44F4B45D3435245454ECC494E45538A
:1083D000C34C53D749445448CD4F4E49544F52D3C0
:1083E0004554D245534554D052494E54C34F4E5430
:1083F000CC495354C34C454152C34C4F4144C353E1
:10840000415645CE4557D4414228D44FC64ED3504D
:108410004328D448454ECE4F54D3544550ABADAA13
:10842000AFDEC14E44CF52BEBDBCD3474EC94E5441
:10843000C14253D55352C65245C94E50D04F53D363
:108440005152D24E44CC4F47C55850C34F53D349D5
:108450004ED4414EC1544ED045454BC445454BD0FA
:108460004F494E54CC454ED3545224D6414CC1535F
:1084700043C3485224C8455824C2494E24CC4546DB
:108480005424D24947485424CD49442480438CE3A2
:108490008A48910E8E009078943A90318EAF8D87F5
:1084A0008DC38EF08B948DD88D128E3C8CF59B9C59
:1084B0008EA08CFB9B3997529C29A6128E0DA6FF8D
:1084C000A504A674A79E08A108ED8E848C338A2982
:1084D0008D128E128E878779FFA179759C7C4C9EB8
:1084E0007CCB9E7F8FA35069934665934E46534E37
:1084F00052474F4446434F564F4D554C42534444C8
:108500002F304944544D4F534C535354434E5546CA
:108510004D4F4858424EE984FDE9CF07E600C32C91
:10852000008AD88AC71C008AF88AC51C008AE8B06D
:1085300000C3000000354ACA99391C76982295B3C9
:10854000980ADD479853D199990A1A9F9865BCCD2E
:1085500098D6773E9852C74F80E400C301FF1C00B5
:10856000001400140000000000E9C303E9917AE957
:108570008E7AE98B7AA709FEFF4409204572726F53
:10858000720020696E20004F6B0D0A000042726578
:10859000616B00BB040003DC8A07433C817401C3A8
:1085A0008A0F438A2F43538BD98AC60AC287DA744B
:1085B0000587DAE80104B90D005B7501C303D9EB47
:1085C000D7E82600518BEC875E0059E8E9038A075B
:1085D00087D9880787D97501C3494BEBEE538B1EAA
:1085E0002409B50003D903D9EB0153B0D02AC38ABB
:1085F000D8B0FF1AC772088AF803DC5B7301C3B2F4
:108600000CEB228B1E1309891EA608B202EB16B2D0
:1086100014EB12B200EB0EB212EB0AB222EB06B26E
:108620000AEB02B218E89A01A28F08E82609BBEC0F
:10863000848AF0B03FE8A40303DA8A07E89D03E8E0
:108640009A05E89703BB7B85E85C128B1EA608BAE7
:10865000FEFFE862037503E9B9FB8AC722C3FEC0C7
:108660007406E8B21BEB015932C0A28F08E8E40897
:10867000BB8785E83112BBFFFF891EA608E8AF0261
:1086800072F4E85705FEC0FEC874EB9F86E0508682
:10869000E0E85C0652E85D018AE85A5886E09E727E
:1086A00003E90905525132C0A21609E82E050AC095
:1086B0009F86E05086E0E89C0072115886E09E9FFD
:1086C00086E05086E07503E909070AC051732187E7
:1086D000DA8B1E200987DA8A0787DA87D988078725
:1086E000D99F41429EE8CF0275EB8BD9891E2009A4
:1086F0005A5886E09E74358B1E20098BEC875E00ED
:108700005903D953E8BAFE5B891E200987DA883FEE
:108710005A9F43438817438837439EBAAB0887DA8A
:108720008A0787DA880743420AC075F2E86F009F1C
:10873000439E87DA8BDA8A07430A077503E936FF17
:1087400043434332C03A079F439E75F987DA88173F
:10875000438837EBDF8B1EA8088BCB8A07430A07B9
:108760009F4B9E7501C343438A07438A3F8AD8E8DB
:1087700045028BD98A079F439E8A3F8AD8F57501A7
:10878000C3F57201C3EBD27401C38B1EA80832C0BB
:1087900088079F439E88079F439E891E20098B1E42
:1087A000A8089F4B9E891E18098B1EF908891E0D6B
:1087B0000932C0E83A048B1E2009891E2209891E4D
:1087C0002409598B1EA4088BE3BBFD08891EFB08F6
:1087D00032C08AD88AF8891E1E09A21509891E2866
:1087E0000953518B1E1809C3B03FE8EF01B020E8D0
:1087F000EA01E93A0132C0A2F808B105BAAB088A29
:10880000073C207503E99E008AE83C227503E9C114
:10881000000AC07503E9CA00A0F8080AC08A0774F4
:1088200003E982003C3FB09E7502EB7A8A073C3038
:1088300072063C3C7302EB6E52BA6D8351B9A0884C
:1088400051B57F8A073C6172083C7B7304245F88C2
:10885000078A0F87DA9F439E0A0779F9FEC58A07C0
:10886000247F7501C33AC175EC87DA539F429E8716
:10887000DA8A0787DA0AC0781E8AC88AC53C8875F2
:1088800006E858039F4B9E438A073C617202245FAF
:108890003AC174D85BEBBA8ACD5886E09E87DAC3BA
:1088A00087DA8AC1595A9F439E87DA880787DA9FF9
:1088B000429EFEC12C3A74043C497503A2F8082C70
:1088C000547403E939FF8AE88A070AC074143AC568
:1088D00074D49F439E87DA880787DAFEC19F429E41
:1088E000EBE6BBAA0887DA880787DA4287DA8807C7
:1088F00087DA4287DA880787DAC3A08E080AC0B011
:1089000000A28E087509FECD7425E8CF00EB02FEAB
:10891000CD9F4B9E74118A07E8C100EB1CFECD9FD2
:108920004B9EE8B7007512E8B200E83506EB00BBD5
:10893000AB08B50132C0A28E08E8E2008AC83C7FCD
:1089400074B8A08E080AC0740AB000E88E0032C065
:10895000A28E088AC13C07743E3C037503E80206F8
:10896000F97501C33C0D7503E9F1053C1574BB3C79
:108970004074B43C5F74A63C0874A23C1275145158
:108980005253C60700E8051EBBAB08E8190F5B5A37
:1089900059EBA63C2072A28AC53C49B00773118AE4
:1089A000C1880FA216099F439EFEC5E82E00EB89E1
:1089B000E82900B008EBF48AC72AC67401C38AC349
:1089C0002AC2C38A078BEC875E003A079F439E8BBF
:1089D000EC875E007503E90302E92FFC9F86E050F7
:1089E00086E0A08F080AC07403E90F0F5886E09E46
:1089F000519F86E05086E03C20721AA08C088AE8DD
:108A0000A0F508FEC57409FECD3AC57503E8520508
:108A1000FEC0A2F5085886E09E59E841F6C3E80E6C
:108A2000F6247F3C0F7401C3A08F08F6D0A28F08F4
:108A300032C0C3E8BA027401C359E818FD51E865B1
:108A4000005B8A0F438A2F438AC50AC17503E91761
:108A5000FCE85D00E8BC0151E807058A179F439ECA
:108A60008A379F439E5387DAE8B417B0205BE86BE0
:108A7000FF8A070AC09F439E74C779F22C7F8AC879
:108A8000BA6E8387DA8A0787DA420AC079F5FEC9A7
:108A900075F1247FE845FF87DA8A0787DA9F429ECF
:108AA0000AC079EEEBCB538B1E9208891E90085BAF
:108AB000C353528B1E9008BAFFFF13DA891E900829
:108AC0005A5B7801C3538B1E9208891E9008E85E9A
:108AD000F53C0374035BEBD98B1E9208891E90084A
:108AE000E9BDF7B064A21509E846035953E81E032F
:108AF000891E1109BB020003DCE89CFA5A751903B0
:108B0000D9524B8A374B8A174343538B1E1109E8BE
:108B1000A5FE5B75E45A8BE387DAB108E8BEFA5329
:108B20008B1E11098BEC875E00538B1EA6088BEC05
:108B3000875E00E87906E88AFEA6E86F0653E8E952
:108B4000145B5152B900818AF18AD68A073CABB0D6
:108B500001750EE88600E8530653E8CD14E85A1470
:108B60005B51529F86E05086E044538B1E18098B60
:108B7000EC875E00B5815144E89800891E18098A87
:108B8000073C3A74280AC07403E97FFA9F439E8A1F
:108B9000079F439E0A077503E9B4009F439E8A1707
:108BA0009F439E8A3787DA891EA60887DAE82C0059
:108BB000BA788B527501C32C807303E973023C258C
:108BC0007203E946FAD0C08AC8B50087DABB8D8443
:108BD00003D98A0F9F439E8A2F5187DA438A073C25
:108BE0003A7201C33C2074F43C30F5FEC0FEC8C3A9
:108BF00087DA8B1EA808741187DAE8F30053E8546B
:108C0000FB8BD95A7203E9CA019F4B9E891E260924
:108C100087DAC3E8ECF57501C3E813F43C1B74175D
:108C20003C0374133C137401C3E803F43C11750155
:108C3000C33C037407EBF2B0FFA297087401C30CA6
:108C4000C0EB037401C3891E1809EB020CFF598B9A
:108C50001EA6089F86E05086E08AC322C7FEC07425
:108C60000C891E1C098B1E1809891E1E0932C0A200
:108C70008F08E8DF025886E09EBB8D857403E9C744
:108C8000F9E9E4F98B1E1E098AC70AC3B2207503ED
:108C9000E992F987DA8B1E1C09891EA60887DAC3B8
:108CA000E88D0F7401C3A28B08C3538B1E9408B5C3
:108CB000008AC803D9891E94085BC38A073C4173A4
:108CC00001C33C5BF5C3E813FFE8E004E8EB12786E
:108CD0001AA031093C907303E9EC13B98090BA00F3
:108CE0000053E890135B8AF17501C3B208E935F9C6
:108CF0009F4B9EBA0000E8E3FE7201C3539F86E0DB
:108D00005086E0BB9819E8AEFC7303E9FDF88BDAF6
:108D100003DA03DB03DA03DB5886E09E2C308AD0CB
:108D2000B60003DA87DA5BEBCD7503E977FAE898EA
:108D3000FF4BE8A7FE538B1EF90874195BE883FC10
:108D40002C52E884FF4BE893FE7403E9BDF88BECEA
:108D5000875E0087DA8AC32AC28AD08AC71AC68A7F
:108D6000F07303E999F8538B1E2009B9280003D941
:108D7000E844FC7203E987F887DA891EA4085B8956
:108D80001EF9085BE91EFA7503E912FAE816FAB94A
:108D9000788BEB1AB103E844F85953538B1EA6089D
:108DA0008BEC875E00B08C9F86E05086E04451E8F3
:108DB0003EFFE85D00538B1EA608E8FAFB5B9F436D
:108DC0009E7303E893F97203E88AF98BD99F4B9E4F
:108DD0007301C3B20EE94DF87401C3B6FFE8B3F7EF
:108DE0008BE33C8CB2047403E93AF85B891EA60855
:108DF0009F439E8AC70AC3750AA016090AC0740356
:108E0000E964F8BB788B8BEC875E00EB015BB13AD1
:108E1000EB02B100B5008AC18ACD8AE88A070AC090
:108E20007501C33AC57501C39F439E3C2274E7EBAD
:108E3000EBE84C06E88CFBB452A0F7089F86E050A4
:108E400086E0E880035886E09E8BEC875E00891EF2
:108E50001809D0D8E85D03743C538B1E2E09534388
:108E6000438A17438A378B1EA808E84AFB73148B82
:108E70001EA408E841FB5A7313BB0909E838FB73C9
:108E80000BEB015AE8300C87DAE88909E8280C5B1B
:108E9000E8AE115BC353E8A5115A5BC3E8910D8A94
:108EA000078AE83C8C7407E819FB889F4B9E8ACAA6
:108EB000FEC98AC57503E9FEFCE837FE3C2C74F058
:108EC000C3EBEDE8FF028A073C887407E8F4FAA9CF
:108ED0009F4B9EE8D902E8E1107503E934FFE8FBF7
:108EE000FC7303E9C9FEE9CBFC4BE8EFFC74737536
:108EF00001C33CA57503E9AA003CA87503E9A300DA
:108F0000533C2C7503E982003C3B7503E9C30059CF
:108F1000E8B20253A0F7080AC07531E80E13E82B37
:108F200009C607208B1E2E09FE078B1E2E09A08C5A
:108F3000088AE8FEC57410FEC5A0F5080207FEC841
:108F40003AC57203E81B00E8600932C07403E859AF
:108F5000095BEB95A0F5080AC07507C3C60700BBFF
:108F6000AA08B00DE875FAB00AE870FA32C0A2F5A6
:108F700008A08B08FEC87501C39F86E05086E032CA
:108F8000C0E858FA5886E09EEBEAA08D088AE8A06F
:108F9000F5083AC57203E8C9FF73372C0E73FCF667
:108FA000D0EB229F86E05086E0E8810CE814FA2995
:108FB0009F4B9E5886E09E2CA8537403A0F508F69C
:108FC000D002C2730DFEC08AE8B020E80EFAFECDD2
:108FD00075F95BE806FCE916FF3F5265646F206691
:108FE000726F6D2073746172740D0A00A017090A04
:108FF000C07403E90DF659BBD98FE8AA08E9E3F775
:10900000E8DA078A073C22B000A28F08750DE83E17
:1090100008E8AFF93B53E89108EB0153E8C9F75969
:109020007303E927FC9F439E8A070AC09F4B9E510A
:109030007503E9D8FDC6072CEB09538B1E26090CD6
:10904000AFEB0232C0A217098BEC875E00EB04E89D
:1090500071F92CE82A048BEC875E00528A073C2CBD
:10906000742AA017090AC07403E9A800B03FE86B8E
:10907000F9E874F75A597303E9D1FB9F439E8A07B5
:109080000AC09F4B9E517503E982FD52A0F7080A62
:10909000C0742CE846FB8AF08AE83C227410A017C2
:1090A000090AC08AF07402B63AB52C9F4B9EE8A21A
:1090B0000787DABBCE908BEC875E0052E99AFDE819
:1090C0001AFBE896108BEC875E00E8710F5B4BE8AB
:1090D0000AFB74073C2C7403E911FF8BEC875E00DC
:1090E0004BE8F8FA7403E966FF5AA017090AC0872B
:1090F000DA7403E916FB520A07BB03917403E8A66E
:10910000075BC33F45787472612069676E6F726553
:10911000640D0A00E8F7FC0AC075239F439E8A0786
:109120009F439E0A07B2067503E9F9F49F439E8A9E
:10913000179F439E8A3787DA891E130987DAE89BCF
:10914000FA3C8375CFE944FFBA00007403E83003AA
:10915000891E1809E83CF47403E9B7F48BE3528ADA
:10916000079F439E9F86E05086E052E8AA0E8BEC54
:10917000875E0053E8F40A5BE8C30E5BE8AE0E536B
:10918000E8F20E5B592AC5E8A30E740B87DA891E34
:10919000A6088BD9E9DDF98BE38B1E18098A073CF9
:1091A0002C7403E9D2F9E833FAE89FFFE816000AC5
:1091B000C0EB01F9A0F70812C00AC07B01C3E96245
:1091C000F4E8FFF7289F4B9EB60052B101E80DF47A
:1091D000E89B00891E1A098B1E1A09598AC53C781A
:1091E0007203E8CAFF8A07B6002CB3721C3C0373F3
:1091F000183C01D0D032C63AC68AF07303E90BF4AA
:10920000891E0F09E8D5F9EBE08AC60AC07403E9A4
:109210009F018A07891E0F092CAC7301C33C07729A
:1092200001C38AD0A0F708FEC80AC28AC27503E942
:10923000E207D0C002C28AD0BBD78403DA8AC58ACB
:10924000373AC67201C39F439EE863FF51B9D79175
:10925000518AEA8ACEE8A70D8AD58AF18A0F9F4300
:109260009E8A2F9F439E518B1E0F09E95CFF32C0DF
:10927000A2F708E866F9B2247503E9A8F37303E9D5
:10928000D90EE836FA735E3C267518E84EF93C486C
:109290007503E91C143C427503E99914B202750385
:1092A000E982F33CAC74C73C2E7503E9AD0E3CADCE
:1092B00074213C227503E996053CAA7503E99101E6
:1092C0003CA77503E9AE042CB67330E8F3FEE8F270
:1092D000F629C3B67DE8F2FE8B1E1A0953E8150D78
:1092E000E8CCFE5BC3E898015387DA891E2E09A0FB
:1092F000F7080AC07503E81F0D5BC3B500D0C08A2C
:10930000C851E8D7F88AC13C317224E8B3FEE8B20C
:10931000F62CE89EFE87DA8B1E2E098BEC875E000A
:109320005387DAE80A0987DA8BEC875E00EB0CE8F2
:1093300099FF8BEC875E00BAE09252B9368303D96D
:109340008A0F9F439E8A3F8AD953C3FECE3CAD7598
:1093500001C33C2D7501C3FEC63C2B7501C33CAC5B
:109360007501C34BC30CAFEB0232C09F86E0508641
:10937000E0E83BFEE85AF95886E09E87DA598BEC24
:10938000875E0087DAE8930C9F86E05086E0E8402D
:10939000F95886E09E598AC1BB2097750A22C28A75
:1093A000C88AC522C653C30AC28AC88AC50AC65318
:1093B000C3BBCB93A0F708D0D88AC6D0D08AD0B68A
:1093C000648AC53AC67201C3E981FECD938AC10A97
:1093D000C0D0D8595A9F86E05086E0E8D6FDBB43FE
:1093E00094537503E98E0C32C0A2F70852E89E062A
:1093F0008A079F439E9F439E8A0F9F439E8A2F5AB0
:10940000519F86E05086E0E88A06E8200C5886E006
:109410009E8AF05B8AC20AC67501C38AC62C017394
:1094200001C332C03AC2FEC07201C3FECEFECA877B
:10943000D98A0787D93A079F439E9F419E74D5F5E5
:10944000E98A0BFEC012C05922C504FF1AC0E98781
:109450000BB65AE874FDE856FDE875F88AC2F6D0F6
:109460008AC88AC6F6D0E8B70259E96AFD4BE86BAC
:10947000F77501C3E84CF52CB96D94510CAFEB02B4
:1094800032C0A2F6088A2FE831F87303E97CF13282
:10949000C08AC8A2F708E843F77205E81DF8720C05
:1094A0008AC8E837F772FBE811F873F62C24750EBA
:1094B000FEC0A2F708D0C802C18AC8E81EF7A015EE
:1094C00009FEC87503E9E60079098A072C287503A7
:1094D000E99F0032C0A21509538AF58AD18B1E2854
:1094E00009E8D3F4BA2A097503E9C8098B1E2209D1
:1094F00087DA8B1E2009E8BEF474208AC12A079FF0
:10950000439E75048AC52A079F439E74559F439EB8
:109510009F439E9F439E9F439EEBDB5B8BEC875E4E
:109520000052BAE892E88FF45A743B8BEC875E00E5
:109530005351B906008B1E24095303D95953E880AF
:10954000F05B891E24098BD9891E22099F4B9EC678
:109550000700E862F475F55A88179F439E88379F85
:10956000439E87DA5BC3A23109BB8685891E2E091B
:109570005BC3538B1EF6088BEC875E008AF052515A
:10958000E843F7595886E09E87DA8BEC875E0053F4
:1095900087DAFEC08AF08A073C2C74E2E824F429BA
:1095A000891E1A095B891EF608B20052EB07539F09
:1095B00086E05086E08B1E2209EB0203DA87DA8B05
:1095C0001E240987DAE8EFF3743D8A073AC19F4306
:1095D0009E75048A073AC59F439E8A179F439E8AB9
:1095E000379F439E75D5A0F6080AC07403E927F09B
:1095F0005886E09E8BCB7503E9B9082A077503E905
:10960000AA00B210E91EF0BA04005886E09E750365
:10961000E9D8F6880F9F439E882F9F439E8AC8E80B
:10962000BBEF9F439E9F439E891E0F09880F9F4358
:109630009EA0F608D0D08AC1B90B007304599F418F
:109640009E880F9F439E882F9F439E9F86E0508653
:10965000E053E8DF0A87DA5B5886E09EFEC875D8DB
:109660009F86E05086E08BCA87DA03DA7303E98EBF
:10967000EFE876EF891E24099F4B9EC60700E83667
:10968000F375F59F419E8AF08B1E0F098A1787DAC2
:1096900003DB03D987DA9F4B9E9F4B9E88179F431E
:1096A0009E88379F439E5886E09E72438AE88AC808
:1096B0008A079F439EEB015B8A179F439E8A379FD1
:1096C000439E8BEC875E009F86E05086E0E8E7F2E1
:1096D0007203E92DFF53E85B0A5A03DA5886E09ECD
:1096E000FEC88BCB75D103DB03DB5903D987DA8B3B
:1096F0001E1A09C38B1E240987DABB000003DCA0F5
:10970000F7080AC07410E88503E80B028B1EA40852
:1097100087DA8B1E0D098AC32AC28AC88AC71AC66D
:109720008AE98AF5B200BBF7088817B590E9AD0859
:10973000A0F5088AE832C0EBE9E8B600E89E00B977
:109740000E8E5152E87CF228E835FD5387DA9F4BA4
:109750009E8A379F4B9E8A175BE853FAE864F2298A
:10976000E860F2B48BCB8BEC875E00880F9F439E42
:10977000882FE9CB00E87A0052E84FFBE830FA8BFB
:10978000EC875E008A179F439E8A379F439E8AC656
:109790000AC27503E984EE8A079F439E8A3F8AD8EE
:1097A000538B1E28098BEC875E00891E28098B1EAF
:1097B0002C09538B1E2A0953BB2A0952E87F085BE8
:1097C000E8E9F94BE815F47403E93FEE5B891E2ADA
:1097D000095B891E2C095B891E28095BC3538B1EFC
:1097E000A6089F439E8AC70AC35B7401C3B216E9E9
:1097F00033EEE8CEF1A7B080A215090A078AE8E89F
:1098000085FCE9AAF9E8A7F9E8210AE83E00E87D25
:1098100002B9099B518A079F439E9F439E53E8AB21
:10982000005B8A0F9F439E8A2FE80B00538AD8E87B
:1098300042025AC3E89500BB09095388079F439E1B
:109840009F439E88179F439E88375BC39F4B9EB55F
:10985000228AF553B1FF9F439E8A07FEC10AC07456
:10986000083AC674043AC575ED3C227503E86CF3FA
:109870008BEC875E009F439E87DA8AC1E8B8FFBA07
:1098800009098B1EFB08891E2E09B001A2F708E802
:10989000AF07E822F1891EFB085B8A077401C3B297
:1098A0001EE981ED9F439EE8A2FFE8E101E87D0704
:1098B000FEC2FECA7501C387D98A0787D9E81CF1A1
:1098C0003C0D7503E8A5F69F419EEBE60AC0EB044C
:1098D0005886E09E9F86E05086E08B1EA40887DABB
:1098E0008B1E0D09F6D08AC8B5FF03D943E8C7F02F
:1098F000720E891E0D099F439E87DA5886E09EC32B
:109900005886E09EB21A7503E91AED3AC09F86E0C8
:109910005086E0B9D098518B1EF908891E0D09BBFD
:109920000000538B1EA40853BBFD0887DA8B1EFB77
:109930000887DAE881F0B92B9975568B1E200987C4
:10994000DA8B1E220987DAE86DF0740C8A0743432C
:109950000AC0E83F00EBE85987DA8B1E240987DA52
:10996000E854F0746FE8C5068AC25303D90AC07977
:10997000E6891E0F095B8A0FB50003D903D99F43FF
:109980009E87DA8B1E0F0987DAE82BF074CAB9813B
:1099900099510C808A079F43438A17438A37439E15
:1099A0007801C30AC07501C38BCB8B1E0D09E80675
:1099B000F08BD97301C35B8BEC875E00E8F8EF8B0B
:1099C000EC875E00538BD97201C359585886E09ECC
:1099D000535251C35A5B8AC30AC77501C39F4B9E3A
:1099E0008A2F9F4B9E8A0F539F4B9E9F4B9E8A1F91
:1099F000B70003D98AF58AD19F4B9E8BCB8B1E0D66
:109A000009E8C0EB5B880F9F439E882F8BD99F4B43
:109A10009EE907FF51538B1E2E098BEC875E00E8F1
:109A20004CF88BEC875E00E889F78A07538B1E2E73
:109A300009530207B21C7303E9EAEBE8F6FD5AE8A2
:109A400052008BEC875E00E84800538B1E0B0987A1
:109A5000DAE80F00E80C00BBD3918BEC875E005373
:109A6000E91CFE5B8BEC875E008A0743438A0F4349
:109A70008A2F8AD8FEC3FECB7501C387D98A078790
:109A8000D987DA880787DA4142EBEBE825F78B1EA6
:109A90002E0987DAE8200087DA7401C3528AF58A32
:109AA000D14A8A0F8B1E0D09E80CEF75088AE8036E
:109AB000D9891E0D095BC38B1EFB084B8A2F4B8A6D
:109AC0000F4B4BE8F1EE7401C3891EFB08C3B93399
:109AD0009751E8B6FF32C08AF0A2F7088A070AC099
:109AE000C3B9339751E8EAFF7503E9FEF143438AAE
:109AF00017438A3787DA8A0787DAC3B001E834FD6B
:109B0000E830018B1E0B09881759E972FDE8CD007A
:109B100032C08BEC875E008AC8538A073AC572044C
:109B20008AC5EB02B10051E8A2FD595B5343438A59
:109B30002F438A3F8ADDB50003D98BCBE8F8FC8A36
:109B4000D8E830FF5AE84CFFE934FDE88F005A525C
:109B500087DA8A0787DA2AC5EBB887DA8A07E882C4
:109B600000FEC5FECD7503E981F151B2FF3C2974B9
:109B700007E84FEE2CE8B800E848EE295886E08B5D
:109B8000EC875E00B9199B51FEC83A07B500720117
:109B9000C38AC88A072AC13AC28AE87301C38AEA1B
:109BA000C3E82EFF7503E96E018AD043438A074359
:109BB0008A3F8AD85303DA8A2F88378BEC875E0076
:109BC000518A073C247505E8E70AEB0C3C2575052E
:109BD000E8620BEB03E88305595B882FC387DAE85B
:109BE000E1ED29595A518AEAC3E84700A28908E8F9
:109BF000966CE93EFBE82600E9506CE820009F8661
:109C0000E05086E0B2004BE8D2EF7407E8B4ED2CE8
:109C1000E81D0059E8716C32C222C574F7C3E80F21
:109C200000A28908A24C08E899ED2CEB03E8ACEF00
:109C3000E879F5E896F08AC60AC07403E9ACF04BFF
:109C4000E899EF8AC2C3E888F087DA8A0787DAE9F9
:109C5000E1FAE857F5E879F052E867ED2CE8D0FF33
:109C60005A87DA880787DAC3BB66A3E8BF03EB0A23
:109C7000E8BA03EB02595AE87B038AC50AC07501AA
:109C8000C3A031090AC07503E990032AC57310F611
:109C9000D0FEC087DAE8670387DAE87E03595A3CCA
:109CA000197201C39F86E05086E0E8A5038AF85840
:109CB00086E09EE801010AC7BB2E097919E8BA00BF
:109CC0007203E980009F439EFE077503E950E9B3E4
:109CD00001E80001EB6F32C02AC58AE88A071AC280
:109CE0008AD09F439E8A071AC68AF09F439E8A079E
:109CF0001AC18AC87303E89A008ADD8AFA32C08AD8
:109D0000E88AC10AC075268ACE8AF78AFB8AD88A71
:109D1000C52C083CE075E832C0A23109C3FECD0372
:109D2000DB8AC6D0D08AF08AC112C08AC879EE8A8E
:109D3000C58AD78AEB0AC0740CBB310902078807B1
:109D400073D57501C38AC5BB31090AC07903E81010
:109D5000008A2F9F439E8A07248032C18AC8E9BAAD
:109D600002FEC27401C3FEC67401C3FEC17401C306
:109D7000B180FE077401C3E9A5E88A0702C28AD050
:109D80009F439E8A0712C68AF09F439E8A0712C18C
:109D90008AC8C3BB32098A07F6D0880732C08AD87E
:109DA0002AC58AE88AC31AC28AD08AC31AC68AF028
:109DB0008AC31AC18AC8C3B5002C08720A8AEA8A03
:109DC000D68AF1B100EBF204098AD832C0FECB7515
:109DD00001C38AC1D0D88AC88AC6D0D88AF08AC2BC
:109DE000D0D88AD08AC5D0D88AE8EBDF00000081BD
:109DF00003AA561980F122768045AA3882E8BA0172
:109E00000AC07B03E9E4EEBB31098A07B93580BAA1
:109E1000F3042AC59F86E05086E0882F5251E85906
:109E2000FE595AFEC5E8A500BBEC9DE842FEBBF01A
:109E30009DE82506B98080BA0000E83DFE5886E01E
:109E40009EE8B503B93180BA1872EB02595AE86935
:109E5000017501C3B300E804018AC1A2400987DA91
:109E6000891E4109B900008AF58AD5BBF99C53BB0C
:109E7000779E5353BB2E098A07430AC0743853B3E5
:109E800008D0D88AF88AC1730F538B1E410903DAB0
:109E900087DA5BA0400912C1D0D88AC88AC6D0D858
:109EA0008AF08AC2D0D88AD08AC5D0D88AE8FECBB8
:109EB0008AC775CD5BC38AEA8AD68AF18AC8C3E8A5
:109EC0003D01B92084BA0000E85001595AE8EA007F
:109ED0007503E93AE7B3FFE88300FE07FE074B8A04
:109EE00007A25B084B8A07A255084B8A07A24F08B6
:109EF0008AE987DA32C08AC88AF08AD0A25F08531A
:109F0000518AC3E848691C00F5730BA25F085858D2
:109F100086E09EF9EB02595B8AC1FEC0FEC8D0D82C
:109F20007903E922FED0D08AC2D0D08AD08AC6D0A6
:109F3000D08AF08AC1D0D08AC803DB8AC5D0D08A43
:109F4000E8A05F08D0D0A25F088AC10AC60AC2751D
:109F5000AE53BB3109FE0F5B75A5E9C2E68AC50A9F
:109F6000C0742D8AC3BB3109320702C58AE8D0D834
:109F700032C58AC57918048088077503E935FFE87A
:109F8000D00088079F4B9EC3E82F00F6D05B0AC025
:109F90005B7803E981FDE986E6E88E008AC50AC0A0
:109FA0007501C304027303E975E68AE8E8CBFCBBDC
:109FB0003109FE077401C3E965E6A031090AC075DD
:109FC00001C3A030093C2FEB02F6D0D0D01AC074E8
:109FD00001C3FEC0C3E8E2FFB588BA0000BB310987
:109FE0008AC8882FB50043C60780D0D0E905FDE8B0
:109FF000C8FF7801C3BB30098A0734808807C3874C
:10A00000DA8B1E2E098BEC875E00538B1E30098B7A
:10A01000EC875E005387DAC3E8120087DA891E2EC8
:10A02000098BD9891E300987DAC3BB2E098A179F8D
:10A03000438A37438A0F439E8A2F9F439EC3BA2E7B
:10A0400009B50487DA8A0787DA88074243FECD75A7
:10A05000F2C3BB30098A07D0C0F9D0D88807F5D041
:10A06000D89F43439E88078AC1D0C0F9D0D88AC8F8
:10A07000D0D83207C38AC50AC07503E93CFFBBC903
:10A080009F53E835FF8AC17501C3BB300932078A87
:10A09000C17901C3E80500D0D832C1C39F439E8A6D
:10A0A000C53A077401C39F4B9E8AC13A077401C326
:10A0B0009F4B9E8AC63A077401C39F4B9E8AC22A51
:10A0C000077401C35B5BC38AE88AC88AF08AD00A36
:10A0D000C07501C353E852FFE877FF32078AF87969
:10A0E00003E81900B0982AC5E8CCFC8AC7D0D07321
:10A0F00003E86DFCB5007303E898FC5BC34A8AC6AD
:10A1000022C2FEC07401C39F499EC3BB31098A07A6
:10A110003C98A02E097201C38A07E8AAFFC60798D7
:10A120008AC29F86E05086E08AC1D0D0E8C5FB583D
:10A1300086E09EC3BB00008AC50AC17501C3B0108A
:10A1400003DB7303E9BBF487DA03DB87DA73070306
:10A15000D97303E9ACF4FEC875E6C33C2D9F86E0D5
:10A160005086E074073C2B74039F4B9EE8A8FB8A43
:10A17000E88AF08AD0F6D08AC8E860EA725E3C2E9F
:10A18000741B3C45751BE853EAE8BFF1E84DEA72E1
:10A1900073FEC6750C32C02AC28AD0FEC1FEC174DD
:10A1A000D8538AC22AC57803E82000790F9F86E039
:10A1B0005086E0E809FD5886E09EFEC075E85A58D2
:10A1C00086E09E7503E82DFE87DAC37501C386E03D
:10A1D0005086E0E8C3FD5886E0FEC8C3528AF08A84
:10A1E000C512C18AE8515352E8AEFD5886E09E2C54
:10A1F00030E805005B595AEB80E803FEE8D9FD59C9
:10A200005AE976FA8AC2D0C0D0C002C2D0C00207D2
:10A210002C308AD0E975FF53BB8285E889F65B87CD
:10A22000DA32C0B598E8B5FDBBA49853BB330953E7
:10A23000E887FDC607207903C6072D9F439EC60702
:10A24000307503E90101537903E8A9FD32C09F8607
:10A25000E05086E0E8FC00B94391BAF84FE815FEFB
:10A260000AC07B215886E09EE863FF9F86E0508607
:10A27000E0EBE4E849FC5886E09EFEC09F86E05093
:10A2800086E0E8CE00E8E0F9FEC0E83AFEE88BFDA3
:10A29000B906035886E09E02C1FEC0780A3C0873E6
:10A2A00006FEC08AE8B002FEC8FEC85B9F86E0508A
:10A2B00086E0BA6AA3FECD750CC6072E9F439EC6E4
:10A2C00007309F439EFECDC6072E7503E86BFD51F8
:10A2D0005352E855FD5BB52FFEC58AC22A078AD0C6
:10A2E0009F439E8AC61A078AF09F439E8AC11A0717
:10A2F0008AC89F4B4B9E73E0E87FFA9F439EE81A03
:10A30000FD87DA5B882F9F439E59FEC975B7FECD46
:10A31000740E4B8A073C3074F93C2E7403E81AFD26
:10A320005886E09E7429C607459F439EC6072B7931
:10A3300007C6072DF6D0FEC0B52FFEC52C0A73FA4E
:10A34000043A9F439E882F9F439E88079F439E8881
:10A350000F5BC3B97494BAF723E819FD0AC05B7A9E
:10A3600003E90FFF53C300000080A08601102700FF
:10A37000E803006400000A0000010000BBF59F8BA9
:10A38000EC875E0053C3E876FCBB66A3E889FC5902
:10A390005AE826FC8AC5744E79070AC07503E96E2F
:10A3A000E20AC07503E971F952518AC10C7FE8795C
:10A3B000FC79155251E853FD595A9F86E05086E0CA
:10A3C000E8B2FC5B8AC7D0D85B891E30095B891E66
:10A3D0002E097303E8A5FF7503E819FC5251E81C28
:10A3E000FA595AE868FAE816FCB93881BA3BAAE883
:10A3F0005CFAA031093C887203E98CFBE80CFD048F
:10A400008004027303E980FB9F86E05086E0BBEC8A
:10A410009DE857F8E82DFA5886E09E595A9F86E045
:10A420005086E0E851F8E8CCFBBB38A4E83900BA24
:10A430000000598ACEE916FA08402E9474704F2E07
:10A44000776E02887AE6A02A7C50AAAA7EFFFF7F58
:10A450007F0000808100000081E8A3FBBA4C9E527F
:10A4600053E8C6FBE8E7F95BE894FB8A079F439E45
:10A47000E8A5FBEB035886E0595AFEC87501C352A4
:10A480005186E05086E053E8C4F95BE89FFB53E84F
:10A49000E8F75BEBE0E822FBBB68087871BB840857
:10A4A000E875FBBB68087501C302072407B500887F
:10A4B000074302C002C08AC803D9E870FBE88EF9DE
:10A4C000A06708FEC02403B5003C0112C5A26708BE
:10A4D000BB14A502C002C08AC803D9E88DF7E849B9
:10A4E000FB8AC28AD1344F8AC8C607804B8A2FC6DE
:10A4F0000780BB6608FE078A072CAB75088807FE35
:10A50000C1FECEFEC2E8F1F7BB8408E930FB880744
:10A510004B88074B8807EBC668B1466899E9926992
:10A5200010D17568BB7AA5E841F7E8D2FAB949833A
:10A53000BADB0FE8E5FA595AE892F9E8C1FAE8CA35
:10A54000FB595AE831F7BB7EA5E824F7E86BFAF926
:10A550007908E813F7E862FA0AC09F86E05086E0BF
:10A560007803E890FABB7EA5E800F75886E09E7273
:10A5700003E881FABB82A5E9DFFEDB0F4981000019
:10A58000007F05BAD71E866426998758342387E052
:10A590005DA586DA0F4983E865FAE88DFF595BE827
:10A5A0005DFA87DAE874FAE87AFFE91EF9E80AFA50
:10A5B0007903E8C7FD7903E83BFAA031093C8172D1
:10A5C0000EB900818AF18AD1E802F9BB709C53BBB5
:10A5D000D9A5E884FEBB7AA5C3094AD73B78026EA9
:10A5E000847BFEC12F7C74319A7D843D5A7DC87F67
:10A5F000917EE4BB4C7E6CAAAA7F00000081C3B0B0
:10A600000CE95ADAE829F68AC2A28C08C3E89CEB66
:10A61000E8BEE68916900889169208C3E8B2E652A9
:10A620005B8A2F438A07E9F9F0E880EBE8A2E6525B
:10A63000E890E32CE875EBE897E68BEC875E008802
:10A64000174388375BC3E866EBE885E651BB3309FF
:10A650008AC63C00740FE833008AC53C3074038816
:10A660002F43880F438AC2E822008AC63C00750641
:10A670008AC53C307405882F9F439E880F4332C0A3
:10A68000880743880759BB3309E97FF18AE8240F1B
:10A690003C0A7202040704308AC88AC5D0C8D0C8F0
:10A6A000D0C8D0C8240F3C0A7202040704308AE8DC
:10A6B000C387DABB0000E817007240EB05E8100022
:10A6C000722D03DB03DB03DB03DB0AC38AD8EBED6C
:10A6D0004287DA8A0787DA3C2074F52C307301C38D
:10A6E0003C0A72072C073C0A7301C33C10F5C38770
:10A6F000DA8AC68ACA53E827F05BC3B226E925DFA7
:10A70000E8ACEAE8CBE551BB3309B511FECD8AC50B
:10A710003C017406D1D273F4EB02D1D2B0301400F4
:10A72000880743FECD75F332C0880743880759BBBD
:10A730003309E9D6F087DABB0000E81B00722D2C44
:10A740003003DB0AC38AD8E80E0073F387DA8AC6BF
:10A750008ACA53E8CAEF5BC34287DA8A0787DA3CC2
:10A760002074F53C307301C33C32F5C3B228E9B420
:10A77000DEE99FDAFAE98818B000A29708E99BDAC7
:10A7800086E05086E022C5593AC5B000C3E84CE2E5
:10A79000E9CFE7FFFFFFFFFFFFFFFFFFFFFFFFFF27
:10C00000B800008ED88ED0BC0010E8E008B8000060
:10C01000A3180FB80004A31A0FA3200FA3220FB078
:10C0200049A2240F32C0A2250F33C0BB280FB90E7E
:10C0300000890743434975F9B80000A33E0FA340A8
:10C040000FB80010A3320F33C08EC0BECBC68BF822
:10C05000B900022E8B044646268905474749741AC3
:10C0600081FEDFC675EDB868C6BB00F026890547BE
:10C070004726891D4747494975F2BB69C6E85304FD
:10C080009C588BC825FF0F509D9C582500F03D0003
:10C09000F0751D545A3BD47432B80001D5000AC063
:10C0A0007507B011BBDFC6EB27B014BBF9C6EB2098
:10C0B00081C900F0519D9C582500F07507B031BB37
:10C0C00003C7EB0CB071BB0BC7EB0532C0BB13C78A
:10C0D000A2250FE8FD03BB84C6E8F703E86604BBAE
:10C0E000000FE8AF04E8B60422C074EA3C447502CD
:10C0F000EB2B3C477503E947013C537503E9A2016B
:10C100003C4C7503E928023C527503E918033C4294
:10C110007503E96CBFBBA1C6E8B803EBB943E8738C
:10C1200004E885040AC97515E869040AC075E68B38
:10C13000161A0F81C2800089161C0FEB438A073C38
:10C140003A750C8916180F43E85E040AC974C6894B
:10C15000161A0F8A073C2C740E0AC075B881C2806B
:10C160000089161C0FEB1943E82904E83B04E82377
:10C17000040AC974A08A070AC0759A4289161C0F5E
:10C180008E06180F8B361A0F83E6F032C0A21E0FF0
:10C19000E82300E883070AC07512A01E0F3C027254
:10C1A000EF8B1E1C0F891E1A0FE92AFF89361A0F02
:10C1B000E85D07E920FFA1180FE83203B03AE85D17
:10C1C000078BC6E82803BBA9C6E80703BF000FB961
:10C1D0001000E82800E2FBBBACC6E8F602BF000F87
:10C1E000B910008A05473C2072093C7F7305E82D91
:10C1F00007EB05B02EE82607E2E9E93E03B020E8A8
:10C200001C07A01E0F0AC0751A3B361A0F740FB018
:10C21000208805E80807B020E803074647C3B001B7
:10C22000A21E0FA01E0F3C0175E5268A048805E8B2
:10C23000C30246473B361C0F7505B002A21E0FC352
:10C2400043E85003E862030AC974168A073C3A754A
:10C250000C89163C0F43E850030AC9744289163A08
:10C260000F8A070AC075388E16400F8B26320FA131
:10C27000300F50A13C0F50A13A0F50A1280F8B1E38
:10C280002A0F8B0E2C0F8B162E0F8B2E340F8B3606
:10C29000360F8B3E380F8E06420F8E1E3E0FCFE9B3
:10C2A00073FE43E8EE02E800030AC9741F8A073CE4
:10C2B0003A750C8916180F43E8EE020AC974E08932
:10C2C00016220FE8CE028A070AC075D3A1180F8E76
:10C2D000C0E81A02B03AE845068B36220F8BC6E852
:10C2E0000C02BBACC6E8EB01268A04E80702B020CA
:10C2F000E82B06E84F02BB000FE898028A070AC045
:10C300007507468936220FEBC33C2D75074E8936DB
:10C31000220FEBB83C2E7503E9BBFDE88B020AC97E
:10C32000740A268814468936220FEBA0E9E6FD43FD
:10C33000E86102E873020AC974148A073C3A75106E
:10C340008916180F43E861020AC9742BEB0233D235
:10C350008A070AC075218BF28E06180FE8B105E82E
:10C360003C023C5374683C3A74103C0D74EE3C0A39
:10C3700074EAE89B05EBF3E99BFDE892018AC88A21
:10C38000D8E88B018AF002C8E884018AD002C88B01
:10C39000FA03FEE87901A2260F02C80ADB7415E849
:10C3A0006D0102C88A3E260F0AFF750426880547DC
:10C3B000FECB75EBE8580102C1750AA0260F0AC032
:10C3C00074A8E911FDBB87C6E80801E908FDE83F4C
:10C3D00005A2260FE838018AD88AC8E831018AF018
:10C3E00002C8E82A018AD002C88BFA03FE80EB0358
:10C3F000722B7416E8180102C88A3E260F80FF319E
:10C40000750426880547FECB75EAE8020102C13CA7
:10C41000FF750AA0260F3C397409E94DFFBB94C68D
:10C42000E8B000E9B0FC43E86A01E871010AC075B0
:10C4300006E88200E99FFCBECEC72E3A04740D2E9A
:10C440008A4C010AC9746C83C606EBEE2E8A44013D
:10C450003C0F750C2E8B7402438A07E84001EBDA1F
:10C460000AC0744F2E8A4C012E8B5C04E86400B025
:10C470003DE8AA042E8B5C0280E107535180F9014C
:10C4800075078A07E86E00EB058B07E86000B020AF
:10C49000E88B04E8AF00BB000FE8F800E80A010AE7
:10C4A000C9740D595B80F90175048817EB0289176F
:10C4B000E923FCE95FFCBE4CC72E8B1C0BDB74111F
:10C4C000E8100046462E8B1C8B07E821004646EB01
:10C4D000E8EB682E8A0722C07406E8410443EBF3B8
:10C4E000C38A0722C07406E8340443EBF4C3508ABD
:10C4F000C4E801005850D0E8D0E8D0E8D0E8E8011E
:10C500000058240F04303C3A72020407E90F043249
:10C51000C0E80800D0E0D0E0D0E0D0E08AE8E8EF62
:10C5200003E87A003C3072123C3A720A3C41720ACB
:10C530003C4773062C072C300AC5C3B00DE8DE0358
:10C54000B00AE9D903BB000F32C9E8C3033C0D743C
:10C550003B3C0A74373C08741B3C7F74173C2072C8
:10C56000E93C8073E580F91773E08807E8AF03437F
:10C57000FEC1EBD622C974D24BFEC9B008E89E03B7
:10C58000B020E89903B008E89403EBBEE8ACFFB034
:10C59000008807C38A073C20750343EBF7C33C615F
:10C5A00072063C7B730204E0C332C933D28A07E8C7
:10C5B000ECFF3C30721F3C3A720A3C4172173C4718
:10C5C00073132C072C30D1E2D1E2D1E2D1E20AD0B0
:10C5D00043FEC1EBD8C3501EB800008ED8891E2A76
:10C5E0000F890E2C0FBB1DC733C9EB41501EB8007D
:10C5F000008ED8891E2A0F890E2C0FBB2CC733C979
:10C60000EB2B501EB800008ED8891E2A0F890E2CE5
:10C610000FBB39C7B90100EB14501EB800008ED80B
:10C62000891E2A0F890E2C0FBB41C733C958A33E60
:10C630000F58A3280F89162E0F892E340F893636EE
:10C640000F893E380F8C06420F582BC1A33A0F5862
:10C65000A33C0F58A3300F8926320F8C16400FE8E9
:10C6600071FEE851FEE96EFACF0D0A556E697665E6
:10C670007273616C204D6F6E69746F722038303840
:10C68000360D0A005D20004572726F722069686580
:10C69000780D0A004572726F7220737265630D0A1D
:10C6A000004572726F720D0A00203A00203A200095
:10C6B0003A303030303030303146460D0A00533990
:10C6C00030333030303046430D0A00D6C500F0EC30
:10C6D000C500F068C600F002C600F019C600F038C8
:10C6E0003038362F383038380D0A00383031383687
:10C6F0002F38303138380D0A005633302F5632304B
:10C700000D0A0038303238360D0A003830333836EA
:10C710000D0A00556E6B6E6F776E0D0A00446976D8
:10C72000696465206572726F720D0A0053746570DA
:10C730000D0A004E4D490D0A00427265616B0D0AEB
:10C74000004F766572666C6F770D0A0088C7280FF8
:10C750008CC72A0F91C72C0F96C72E0F9BC7300F7F
:10C760009FC73C0FA5C73E0FAAC7400FAFC7420FD8
:10C77000B4C7320FBAC7340FBFC7360FC4C7380F9C
:10C78000C9C73A0F0000000041583D002042583D03
:10C79000002043583D002044583D0020463D0020E5
:10C7A0002043533D002044533D002053533D00207F
:10C7B00045533D000D0A53503D002042503D00209E
:10C7C00053493D002044493D002049503D00410F60
:10C7D00004C80000420F1CC80000430F3AC8000004
:10C7E000440F58C80000450F58C800004602300FDB
:10C7F000DFC8490F88C80000530F94C8000000002C
:10C80000000000005802280FACC84801290FAFC82B
:10C810004C01280FB2C800000000000058022A0F87
:10C82000B5C848012B0FB8C84C012A0FBBC850022D
:10C83000340FBEC800000000000058022C0FC1C811
:10C8400048012D0FC4C84C012C0FC7C853023C0F20
:10C85000CAC800000000000058022E0FCDC84801D1
:10C860002F0FD0C84C012E0FD3C84902380FD6C89D
:10C8700053023E0FD9C80000000000005302420FCF
:10C88000DCC800000000000050023A0FE1C80000C0
:10C89000000000004902360FE4C85002320FE7C81A
:10C8A0005302400FEAC80000000000004158004158
:10C8B0004800414C00425800424800424C0042505F
:10C8C00000435800434800434C0043530044580081
:10C8D000444800444C00444900445300455300463A
:10C8E00000495000534900535000535300B000E634
:10C8F000019090B000E6019090B000E6019090B0F9
:10C9000040E6019090B04EE6019090B037E601C34A
:10C91000E401240274FAE400C3E4012402C350E4F5
:10C9200001240174FA58E600C3FFFFFFFFFFFFFF79
:10C93000000E7A6F000E796F57C58BF558C58CF5D0
:10C9400059C58DF55AC58EF58EAF16D0000E7A6F8B
:10C95000010E796F8BC501F58CC502F58DC503F508
:10C960008EC504F560ECF8F001C58BF502C58CF5B9
:10C9700003C58DF504C58EF5000E926F000E916F04
:10C98000C5C57DF5C6C57EF579517A11D8A402D00A
:10C99000C9A514D079517A11D8A404D0000E666FBD
:10C9A0002B0E03D0000E666F2D0E656F610096F59D
:10C9B00000F6914B922B7D07D8A07E078BC501F521
:10C9C0008CC502F58DC503F58EC504F5DAECF4F0DF
:10C9D00001040210D8A443D0BF0E0501606FFF0E02
:10C9E000616F5B50626F636B6051622761516323BB
:10C9F000635111E11A0E625DD8B00DD0000E912581
:10CA0000016E260E9221026EEB0E036EFF0E046E77
:10CA100070ECF7F00CD0000E9125016E260E9221DD
:10CA2000026EF30E036EFF0E046E70ECF7F005015C
:10CA3000FD0E7D27FF0E7E2355C512F556C513F555
:10CA4000000E146E260E156E7DC516F57EC517F503
:10CA500000ECF6F012C555F513C556F512008BC55E
:10CA600001F58CC502F58DC503F58EC504F5DAEC2C
:10CA7000F4F001500210D8A443D0BF0E0501606F3E
:10CA8000FF0E616F5B50626F636B60516227615193
:10CA90006323635111E11A0E625DD8B00DD0000E10
:10CAA0009125016E260E9221026EEF0E036EFF0E8F
:10CAB000046E70ECF7F00CD0000E9125016E260E7E
:10CAC0009221026EF70E036EFF0E046E70ECF7F00B
:10CAD0000501FD0E7D27FF0E7E2355C512F556C5B7
:10CAE00013F5000E146E260E156E7DC516F57EC567
:10CAF00017F500ECF6F012C555F513C556F5120002
:10CB0000000E0501936F000E946F800E956F3F0E1F
:10CB1000966F000E906F000E8F6F8BC501F58CC560
:10CB200002F58DC503F58EC504F5000E056E000EE9
:10CB3000066E000E076E000E086E4DECF6F0D8A0E3
:10CB40001ED076D093C50FF594C510F595C511F597
:10CB500096C512F5000E136E000E146E200E156EA3
:10CB6000410E166E6DECECF00FC593F510C594F503
:10CB700011C595F512C596F505018F4B902B8BC508
:10CB800028F58CC529F58DC52AF58EC52BF5000E27
:10CB9000136E000E146E200E156E410E166E93C5A8
:10CBA0000FF594C510F595C511F596C512F56DEC08
:10CBB000ECF00FC52CF510C52DF511C52EF512C5DD
:10CBC0002FF572ECF4F0D8A01FD0BCD793C528F590
:10CBD00094C529F595C52AF596C52BF5000E2C6E42
:10CBE000000E2D6E200E2E6E410E2F6E1AECF1F0FF
:10CBF00028C593F529C594F52AC595F52BC596F555
:10CC000005018F07D8A090078BC528F58CC529F59D
:10CC10008DC52AF58EC52BF593C52CF594C52DF53C
:10CC200095C52EF596C52FF572ECF4F0D8A0CED7A9
:10CC30005BC507F5086AE0ECF7F007500501806F67
:10CC400080C57FF5670E8019D8A419D0C751C811C7
:10CC5000D8A404D0000EC86F010EC76FC8BF05D09E
:10CC6000C85108E1C705D8B005D0000E7C6F060E8C
:10CC70007B6F08D0C7C57BF5C8C57CF503D0C8AFAE
:10CC8000F9D7F3D7670E8019D8A422D090AF06D079
:10CC9000FC0E8F5DFF0E9059D8A018D0FF0E606F6C
:10CCA000FF0E616F7BC562F57CC563F5605162273D
:10CCB000615163238F51625D6351800A646F9051AB
:10CCC000800A6459D8A002D0660E01D0650E7F6F2D
:10CCD0007BC571F57CC572F5670E8019D8A405D0A7
:10CCE000660E7F19D8B490AF02D0714B722B660ECE
:10CCF0007F19D8A416D090AF0CD0000E936F000E01
:10CD0000946F800E956F3F0E966F000E906F000E21
:10CD10008F6F670E8019D8B404D08F51712790514E
:10CD20007223000E8A6F000E896F8BC581F58CC54A
:10CD300082F58DC583F58EC584F593C573F594C5CD
:10CD400074F595C575F596C576F57BD081C528F542
:10CD500082C529F583C52AF584C52BF593C52CF525
:10CD600094C52DF595C52EF596C52FF51AECF1F065
:10CD700028C541F529C542F52AC543F52BC544F51B
:10CD80005EECF2F041C585F542C586F543C587F5F1
:10CD900044C588F585C501F586C502F587C503F547
:10CDA00088C504F5A3ECF5F001C577F502C578F563
:10CDB00081C528F582C529F583C52AF584C52BF5DB
:10CDC00093C513F594C514F595C515F596C516F5D7
:10CDD00085C50FF586C510F587C511F588C512F50F
:10CDE0006DECECF00FC52CF510C52DF511C52EF529
:10CDF00012C52FF59EECF7F028C581F529C582F5FF
:10CE00002AC583F52BC584F593C528F594C529F566
:10CE100095C52AF596C52BF5000E2C6E000E2D6ECD
:10CE2000200E2E6E410E2F6E1AECF1F028C593F5F0
:10CE300029C594F52AC595F52BC596F50501894BAD
:10CE40008A2B7151895D8A51800A606F7251800A04
:10CE50006059D8A07BD793C50FF594C510F595C53B
:10CE600011F596C512F5000E136E000E146EA00E8D
:10CE7000156E400E166E6DECECF00FC585F510C505
:10CE800086F511C587F512C588F581C528F582C5D7
:10CE900029F583C52AF584C52BF585C52CF586C5EE
:10CEA0002DF587C52EF588C52FF572ECF4F0D8B0B6
:10CEB00003D0000E050118D081C501F582C502F529
:10CEC00083C503F584C504F585C505F586C506F556
:10CED00087C507F588C508F54DECF6F0D8A00BD04E
:10CEE000050177B108D0000E856F000E866F000E29
:10CEF000876F000E886F8BC501F58CC502F58DC557
:10CF000003F58EC504F585C505F586C506F587C507
:10CF100007F588C508F515ECEEF001C581F502C5E9
:10CF200082F503C583F504C584F581C528F582C55E
:10CF300029F583C52AF584C52BF5000E136E000E66
:10CF4000146E200E156E410E166E73C50FF574C566
:10CF500010F575C511F576C512F56DECECF00FC541
:10CF60002CF510C52DF511C52EF512C52FF572EC57
:10CF7000F4F0D8A024D005018F4B902B73C50FF58A
:10CF800074C510F575C511F576C512F5000E136E52
:10CF9000000E146E200E156E410E166E6DECECF048
:10CFA0000FC573F510C574F511C575F512C576F585
:10CFB000660E05017F19D8A402D0714B722B73C580
:10CFC00093F574C594F575C595F576C596F5650E1A
:10CFD00005017F19D8B405D08FC56FF590C570F5E0
:10CFE00004D0000E706F000E6F6F000E6E6F000E9B
:10CFF0006D6F000E6C6F000E6B6F000E8A6F000E6F
:10D00000896FC6D081C528F582C529F583C52AF563
:10D0100084C52BF593C52CF594C52DF595C52EF536
:10D0200096C52FF51AECF1F028C541F529C542F552
:10D030002AC543F52BC544F55EECF2F041C585F5F4
:10D0400042C586F543C587F544C588F585C501F514
:10D0500086C502F587C503F588C504F5A3ECF5F090
:10D0600001C577F502C578F50501C9B90CD077512E
:10D070007811D8A408D0670E8019D8B470AF03D047
:10D080006B4B6C2B39D06D516E11D8B470AF22D070
:10D09000000E9125D96E260E9221DA6E2E0EDF6ECD
:10D0A000914B922B7D07D8A07E07000E6E6F010E6C
:10D0B0006D6F10D0000E9125D96E260E9221DA6E7A
:10D0C000300EDF6E914B922B7D07D8A07E076B0749
:10D0D000D8A06C076B516C11D8A4ECD7000E912529
:10D0E000D96E260E9221DA6E7751300FDF6E914B9A
:10D0F000922B7D07D8A07E0781C528F582C529F52A
:10D1000083C52AF584C52BF593C513F594C514F58D
:10D1100095C515F596C516F585C50FF586C510F5A7
:10D1200087C511F588C512F56DECECF00FC52CF52F
:10D1300010C52DF511C52EF512C52FF59EECF7F093
:10D1400028C581F529C582F52AC583F52BC584F547
:10D1500093C528F594C529F595C52AF596C52BF5EF
:10D16000000E2C6E000E2D6E200E2E6E410E2F6EB8
:10D170001AECF1F028C593F529C594F52AC595F563
:10D180002BC596F505016F07D8A07007894B8A2B30
:10D190007151895D8A51800A606F7251800A6059AD
:10D1A000D8B008D092BF2ED7925104E14B0E915DBA
:10D1B000D8A028D76D516E11D8B4C9A90AD0000ED5
:10D1C0009125D96E260E9221DA6E2E0EDF6E914BCE
:10D1D000922B000E9125D96E260E9221DA6E000E4A
:10D1E000DF6E650E7F19D8A4A5D0000E8A6F4F0E92
:10D1F000896F000E8925D96E260E8A21DA6E000EFF
:10D20000DF6E000E7A6F000E796F90AF08D0000EBF
:10D210007A6F010E796F8F6D901FD8B0902B000E32
:10D220007C6F020E7B6F2AD08907D8A08A07000E78
:10D230008925D96E260E8A21DA6E8FC501F590C533
:10D2400002F5000E046E0A0E036ED4ECF6F00150E7
:10D25000300FDF6E8FC501F590C502F5000E046E2C
:10D260000A0E036E92ECF6F001C58FF502C590F53B
:10D270007B07D8A07C077D07D8A07E078F5190112F
:10D28000D8A4D2D77CBF05D07C51CEE17B05D8B0E5
:10D29000CBD78907D8A08A0779517A11D8A404D0AE
:10D2A000000E686F2B0E03D0000E686F2D0E676F97
:10D2B000000E8925D96E260E8A21DA6E61009CF552
:10D2C000DFF47D07D8A07E078907D8A08A07BF0EA4
:10D2D000606FFF0E616F5B50626F636B605162271E
:10D2E00061516323635104E11A0E625DD8A004D03A
:10D2F000000E6A6F650E03D0000E6A6F450E696FEF
:10D30000000E8925D96E260E8A21DA6E6100A4F5F9
:10D31000DFF47D07D8A07E07000E9125016E260E52
:10D320009221026E000E8925036E260E8A21046E5C
:10D3300070ECF7F055C512F556C513F5000E146ED6
:10D34000260E156E7DC516F57EC517F500ECF6F0B8
:10D3500012C555F513C556F51200610064F6D9F4EF
:10D36000610068F6DAF4DEC4F6F4DDC4F7F4000E0A
:10D37000F86E0800F550250AD8A48FD2610064F633
:10D38000D9F4610068F6DAF4DE2A000EDD22000E20
:10D39000C66F000EC56FC5C5C9F5C6C5CAF5C76954
:10D3A000C869610064F6D9F4610068F6DAF4DEC495
:10D3B000F6F4DDC4F7F4000EF86E0800F5502A0A02
:10D3C000D8A42DD0610064F6D9F4610068F6DAF4CF
:10D3D000DE2A000EDD2261006CF6D9F4610070F6E1
:10D3E000DAF461007CF35CF5020EDE2661007CF36A
:10D3F0005DF5000EDD22610070F5D9F4610074F571
:10D40000DAF4610078F3C5F5610074F3C6F5C6AFD0
:10D4100040D0C981C56DC61FD8B0C62B3AD06100B7
:10D4200064F6D9F4610068F6DAF4610078F308F57F
:10D43000610074F309F532ECF3F008C5C5F509C5D0
:10D44000C6F509D0610064F6D9F4610068F6DAF433
:10D45000DE2A000EDD22D00E5C6EFF0E5D6E6100D6
:10D4600064F6D9F4610068F6DAF4DEC4F6F4DDC4DB
:10D47000F7F4000EF86E0800F5505E6E5F6A5C50BF
:10D480005E265D505F225F5004E10A0E5E5CD8A00C
:10D49000D9D7610064F6D9F4610068F6DAF4DEC425
:10D4A000F6F4DDC4F7F4000EF86E0800F5502E0A0D
:10D4B000D8A47FD0000E0501C86F000EC76F6100B1
:10D4C00064F6D9F4610068F6DAF4DE2A000EDD2293
:10D4D000610064F6D9F4610068F6DAF4DEC4F6F4AB
:10D4E000DDC4F7F4000EF86E0800F5502A0AD8A43F
:10D4F00026D0610064F6D9F4610068F6DAF4DE2A19
:10D50000000EDD2261006CF6D9F4610070F6DAF4E9
:10D5100061007CF35CF5020EDE2661007CF35DF5B4
:10D52000000EDD22610070F5D9F4610074F5DAF4C3
:10D53000610078F3C7F5610074F3C8F53AD0610073
:10D5400064F6D9F4610068F6DAF4610078F308F55E
:10D55000610074F309F532ECF3F008C5C7F509C5AD
:10D56000C8F509D0610064F6D9F4610068F6DAF410
:10D57000DE2A000EDD22D00E5C6EFF0E5D6E6100B5
:10D5800064F6D9F4610068F6DAF4DEC4F6F4DDC4BA
:10D59000F7F4000EF86E0800F5505E6E5F6A5C509E
:10D5A0005E265D505F225F5004E10A0E5E5CD8A0EB
:10D5B000D9D7610064F6D9F4610068F6DAF4DEC404
:10D5C000F6F4DDC4F7F4000EF86E0800F550076EAF
:10D5D000086AE0ECF7F007500501A16FA151D8B43B
:10D5E00045D0610064F6D9F4610068F6DAF46100B0
:10D5F00078F35CF5610074F35DF5010E5C26000EB6
:10D600005D22610070F5F6F4610074F5F7F4000E28
:10D61000F86E0800F550076E086AE0ECF7F0075066
:10D620000501A26FA251D8B421D0610064F6D9F4EB
:10D63000610068F6DAF4610078F35CF5610074F378
:10D640005DF5020E5C26000E5D22610070F5F6F4B9
:10D65000610074F5F7F4000EF86E0800F550076EDF
:10D66000086AE0ECF7F007500501A36F660EA119F8
:10D67000D8A450D0610064F6D9F4610068F6DAF4F9
:10D68000DEC4F6F4DDC4F7F4000EF86E08006100A5
:10D69000D4F3A4F5610064F6D9F4610068F6DAF415
:10D6A000DE2A000EDD2261006CF6D9F4610070F60E
:10D6B000DAF461007CF35CF5040EDE2661007CF395
:10D6C0005DF5000EDD22610070F5D9F4610074F59E
:10D6D000DAF4610078F39DF5610078F39EF561005E
:10D6E00078F39FF5610078F3A0F597C555F598C5D7
:10D6F00056F59DC557F59EC558F59FC559F5A0C56A
:10D700005AF5A4C55BF598ECE4F055C597F556C5F8
:10D7100098F51200A10E016E050E026EFB0E036E4F
:10D72000FF0E046E000E066E020E056E40ECF5F064
:10D7300001500210D8A479D0610064F6D9F46100D8
:10D7400068F6DAF4610078F35CF5610074F35DF576
:10D75000010E5C26000E5D22610070F5F6F461009A
:10D7600074F5F7F4000EF86E08006100D4F3A4F528
:10D77000BF0E5C6EFF0E5D6E610064F6D9F4610051
:10D7800068F6DAF4DEC4F6F4DDC4F7F4000EF86EE1
:10D790000800F5505E6E5F6A5C505E265D505F2249
:10D7A0005F5002E11A0E5E5C61006CF6D9F4610014
:10D7B00070F6DAF461007CF35CF5040EDE2661009D
:10D7C0007CF35DF5000EDD22610070F5D9F4610097
:10D7D00074F5DAF4610078F39DF5610078F39EF555
:10D7E000610078F39FF5610078F3A0F5020E610007
:10D7F00064F6D9F4610068F6DAF4DE26000EDD2264
:10D8000097C555F598C556F59DC557F59EC558F56C
:10D810009FC559F5A0C55AF5A4C55BF598ECE4F091
:10D8200055C597F556C598F51200610064F6D9F410
:10D83000610068F6DAF4DEC4F6F4DDC4F7F4000E35
:10D84000F86E0800F550250AD8A419D0610064F6D6
:10D85000D9F4610068F6DAF4DE2A000EDD22000E4B
:10D86000036E250E026E97C504F598C505F50CEC00
:10D87000F7F0000E0501986F010E976F120061001E
:10D8800064F6D9F4610068F6DAF4DE2A000EDD22CF
:10D89000000E986F000E976F1200610064F6D9F4C5
:10D8A000610068F6DAF4DEC4F6F4DDC4F7F4000EC5
:10D8B000F86E0800F550026E036A97C504F598C526
:10D8C00005F50CECF7F0610064F6D9F4610068F638
:10D8D000DAF4DE2A000EDD22CCD71250800B1B6E4C
:10D8E00012501224216E11BE21802150D8B40DD0C7
:10D8F0002128D8A408D0000E0F6E000E106E000E66
:10D90000116E000E126E118E08D0000E0F6E000EFA
:10D91000106E000E116E000E126E1650800B1B1A48
:10D92000165016241C6E15BE1C801C50D8B40DD089
:10D930001C28D8A408D0000E136E000E146E000E22
:10D94000156E000E166E158E08D0000E136E000EAA
:10D95000146E000E156E000E166E1C50D8B403D057
:10D960002150D8A409D0000E0F6E000E106E000ECC
:10D97000116E000E126E120015500F026100CCF3F2
:10D9800026F56100D0F327F526501D6E1E6A1F6A2A
:10D99000206A2750226E236A246A256A14501002D6
:10D9A0006100CCF326F56100D0F327F526501D2643
:10D9B000000E1E221F22202227502226000E232284
:10D9C00024222522135011026100CCF326F56100B8
:10D9D000D0F327F526501D26000E1E221F222022DE
:10D9E00027502226000E2322242225221FC520F59F
:10D9F0001EC51FF51DC51EF51D6A135010026100DE
:10DA0000CCF326F56100D0F327F526501D262750CC
:10DA10001E22000E1F22000E202214500F02610051
:10DA2000CCF326F56100D0F327F526501D262750AC
:10DA30001E22000E1F22000E20221FC520F51EC52B
:10DA40001FF51DC51EF51D6A13500F026100CCF3B2
:10DA500026F56100D0F327F526501D2627501E22FB
:10DA6000000E1F22000E2022155010026100CCF380
:10DA700026F56100D0F327F52650222627502322D1
:10DA8000000E2422000E2522145011026100CCF356
:10DA900026F56100D0F327F52650222627502322B1
:10DAA000000E2422000E2522155011026100CCF335
:10DAB00026F56100D0F327F52650176E2750186E13
:10DAC000196A1A6A19C51AF518C519F517C518F58E
:10DAD000176A1750222618502322195024221A5050
:10DAE000252220502226000E2322242225221FC573
:10DAF00020F51EC51FF51DC51EF51D6A1C5021C54C
:10DB000017F5186A1726000E1822820E1724266EA3
:10DB1000FF0E1820276E0FD0D890223623362436D9
:10DB2000253620BE2280D8901D361E361F36203660
:10DB30002606D8A0270624AEEFD7000E1C6E20AE16
:10DB400017D0FF0E1D14176EFF0E1E14186EFF0E59
:10DB50001F14196E7F0E20141A6E1750181019100A
:10DB60001A10D8B403D0010E1C6E02D022B0FBD71D
:10DB70001C50D8B41FD0010E2226000E23222422CE
:10DB8000252225A017D022C517F523C518F524C5D1
:10DB900019F525C51AF51A341A3219321832173206
:10DBA00017C522F518C523F519C524F51AC525F59D
:10DBB000264A272A27BE0DD0275003E12628D8A0C1
:10DBC00008D0000E226E000E236E800E246E7F0E93
:10DBD00020D027BE05D027500EE12604D8B00BD0A8
:10DBE000000E226E000E236E000E246E000E256EB7
:10DBF000000E1B6E0FD026C521F5FF0E2216FF0E5C
:10DC000023167F0E2416000E251621B0248ED890E0
:10DC10002130256E1B50251222C50FF523C510F5A6
:10DC200024C511F525C512F512000450800B0D6EA8
:10DC3000045004240F6E03BE0F800F50D8B40DD0D3
:10DC40000F28D8A408D0000E016E000E026E000E40
:10DC5000036E000E046E038E06D0000E016E000EE1
:10DC6000026E000E036E000E046E0850800B0E6EE6
:10DC70000D500E18D8A40D8C085008240E6E07BE47
:10DC80000E800E50D8B40DD00E28D8A408D0000EA7
:10DC9000056E000E066E000E076E000E086E078EF3
:10DCA00006D0000E056E000E066E000E076E000E0A
:10DCB000086E0F500E5CD8B022D00DAC02D0800E92
:10DCC0000D1A0FC510F50EC50FF510C50EF501C5DF
:10DCD00010F505C501F510C505F502C510F506C519
:10DCE00002F510C506F503C510F507C503F510C507
:10DCF00007F504C510F508C504F510C508F5000EB4
:10DD0000106E0F500EC509F50A6A095E000E0A5A18
:10DD10000ABE2CD00A5004E11A0E095CD8A026D005
:10DD20000150021003100410D8B402D0010E01D02B
:10DD3000000E106E000E016E000E026E000E036EDD
:10DD4000000E046E0EC50FF515D010A005D0D890AA
:10DD500010300109106E02D0D890103201B0108E30
:10DD6000043404320332023201320F2A0E500F5CA7
:10DD7000D8A0EBD70DBC28D00F50D8A409D0000EE6
:10DD8000016E000E026E000E036E000E046E120095
:10DD90000550012606500222075003220850042293
:10DDA00004A071D010A005D0D89010300109106ED9
:10DDB00002D0D890103201B0108E043404320332F5
:10DDC000023201320F2A5FD00550015C0650025822
:10DDD000075003580450800A096E0850800A0958F9
:10DDE000D8B025D00150055C096E025006580A6E65
:10DDF000035007580B6E045008580C6EFF0E092490
:10DE0000016EFF0E0A20026EFF0E0B20036EFF0E46
:10DE10000C20046E800E0D1A106C1050D8A40FD078
:10DE2000010E0126000E02220322042208D0055012
:10DE3000015E0650025A0750035A0850045A015016
:10DE4000021003100410D8A41CD01050D8A419D06C
:10DE5000000E016E000E026E000E036E000E046EC8
:10DE60001200D890013602360336043610BE018007
:10DE700010A002D0D88001D0D89010360F50D8A46E
:10DE80000F0603AEEED7000E0E6E10AE0BD010C50F
:10DE900009F57F0E0916D8B403D0010E0E6E02D01C
:10DEA00001B0FBD70E50D8B420D0010E0126000ED1
:10DEB00002220322042204A018D001C509F502C5DC
:10DEC0000AF503C50BF504C50CF50C340C320B3206
:10DED0000A32093209C501F50AC502F50BC503F579
:10DEE0000CC504F50F28D8A40F2A0F28D8B403D0E6
:10DEF0000F50D8A40DD0000E016E000E026E000E61
:10DF0000036E000E046E0F50D8A402D0000E0D6EEA
:10DF10000FA002D0038E01D0039ED8900F30046E64
:10DF20000DBE048E01C501F502C502F503C503F55A
:10DF300004C504F51200080E0001B16F020E0201C3
:10DF4000616F080E636F0A0E646F090E676F000E33
:10DF50000001D56F000ED86F7F0ED96F7F0EDA6F7C
:10DF60007F0EDB6F020EDC6F040EDD6F000EDE6FC6
:10DF7000000EDF6F800ED76F840ED66F010ED56F47
:10DF8000020ED86F030ED96F7F0EDA6F7F0EDB6F34
:10DF9000010EDC6F040EDD6F100EDE6F400EDF6FC2
:10DFA000000ED76F820ED66F020ED56F020ED86F9D
:10DFB000060ED96F7F0EDA6F7F0EDB6F010EDC6FFE
:10DFC000040EDD6F100EDE6F400EDF6F000ED76F98
:10DFD000820ED66F070ED56F080ED86F330ED96F2D
:10DFE0007F0EDA6F7F0EDB6F020EDC6F080EDD6FC7
:10DFF000100EDE6F400EDF6F000ED76F820ED66FF1
:10E000003F0E0201026F04010093C692000E436F9F
:10E01000000E446F040E456F1A0E476F4691468BF3
:10E02000468F009BBE8AC69A000E186F1969C96890
:10E03000000E106F1169C86808950985C784089398
:10E040000983C78208910981C78000950185C6842C
:10E050000099BE88C6982095C294CA940091BE903B
:10E06000C69008990989C7882091C290CA902093C8
:10E07000C292CA920897BF86C796010E0201D56F59
:10E08000A00ED46FD189D18B0401009FC68E070EDC
:10E090000201766F0401009DBE8CC69C260E020113
:10E0A000076FD28F000E136E240E146EF40E156ED1
:10E0B000410E166E04014351016E4451026E4551EA
:10E0C000036E046A000ED2ECF3F001C50FF502C531
:10E0D00010F503C511F504C512F56DECECF00FC594
:10E0E00028F510C529F511C52AF512C52BF5000E26
:10E0F0002C6E240E2D6E740E2E6E490E2F6E1AECA1
:10E10000F1F028C5B5F529C5B6F52AC5B7F52BC573
:10E11000B8F5D70E0501AD6FFF0EAE6FB5C5AFF503
:10E12000B6C5B0F5B7C5B1F5B8C5B2F5A2ECF8F013
:10E13000000EBA6F000EB96F000EB925D96E060E2B
:10E14000BA21DA6E000EDF6EB94BBA2BBABFF4D724
:10E15000200EBA5DD8A0F0D7550E0401596FAA0E53
:10E16000596F5991080E5D6F000E5E6F000E5F6F64
:10E17000550E596FAA0E596F5981B790D68E000E61
:10E18000E06E000E0001D56F010EF86EBE9A05D04C
:10E19000CFA4FED7C868B7B0C284D4B1FED7D0C46C
:10E1A000F6F4D1C4F7F4D785BE98D795D4A313D08D
:10E1B000C86AF7AE04D00800F5C4C0F40AD0200E37
:10E1C000F76009D0F6C4E9F4F750060FEA6EEFC421
:10E1D000C0F4BE88DDD7D4A50CD0200EF76007D0E0
:10E1E000F6C4E9F4F750060FEA6ED0C4EFF4BE8827
:10E1F000D2D7CFB415D0C86AF604D8A409D0000E7F
:10E20000B7B0010EB7B0010FB7B2010FC06E06D0A4
:10E21000F650D8A403D0C7C2C0F4C294BE88B8D701
:10E22000CFB204D0F650D8B4D0C4C9F2BE88B3D7A8
:10E23000FBEFFFF02B50800B386E2B502B243F6EE2
:10E240002ABE3F803F50D8B40DD03F28D8A408D074
:10E25000000E286E000E296E000E2A6E000E2B6E28
:10E260002A8E06D0000E286E000E296E000E2A6E31
:10E27000000E2B6E2F50800B381A2F502F24406E1B
:10E280002EBE40804050D8B40DD04028D8A408D02D
:10E29000000E2C6E000E2D6E000E2E6E000E2F6ED8
:10E2A0002E8E06D0000E2C6E000E2D6E000E2E6EE1
:10E2B000000E2F6E2C502D102E102F10D8A417D01A
:10E2C000000E286E000E296E000E2A6E000E2B6EB8
:10E2D000800E2A127F0E2B1238502B1228C528F5DB
:10E2E00029C529F52AC52AF52BC52BF512003F5063
:10E2F000D8A409D0000E286E000E296E000E2A6EDA
:10E30000000E2B6E120040503FC530F5316A305E72
:10E31000000E315A7F0E3024396E000E31203A6ED5
:10E3200028C534F529C535F52AC536F52BC537F589
:10E33000000E286E000E296E000E2A6E000E2B6E47
:10E34000000E3B6E000E3C6E000E3D6E000E3E6EEB
:10E35000000E406E28D04050D8B411D0D89034363A
:10E36000353636363736D890283629362A362B3683
:10E370003EBE2880D8903B363C363D363E362C504B
:10E38000345C2D5035582E5036582F503758D8A061
:10E3900009D03E8C2C50345E2D50355A2E50365AB2
:10E3A0002F50375A402A190E4064D5D734503510B3
:10E3B00036103710D8B411D03B800FD0D890283603
:10E3C00029362A362B363EBE2880D8903B363C363E
:10E3D0003D363E363906D8A03A062AAEEFD7000EB3
:10E3E000406E3EAE17D0FF0E3B14306EFF0E3C1455
:10E3F000316EFF0E3D14326E7F0E3E14336E305080
:10E40000311032103310D8B403D0010E406E02D058
:10E4100028B0FBD74050D8B41FD0010E2826000EDC
:10E4200029222A222B222BA017D028C530F529C556
:10E4300031F52AC532F52BC533F533343332323258
:10E440003132303230C528F531C529F532C52AF5CB
:10E4500033C52BF5394A3A2A3ABE10D03A5003E177
:10E460003928D8A00BD0000E3A6E3968000E286EFD
:10E47000000E296E000E2A6E000E2B6E3ABE05D0DD
:10E480003A5011E13904D8B00ED0000E3A6E000EA9
:10E49000396E000E286E000E296E000E2A6E000ED8
:10E4A0002B6E000E386E39C53FF53FA002D02A8E84
:10E4B00001D02A9ED8903F302B6E0ED7BBC551F5A8
:10E4C000BCC552F5BDC553F5BEC554F541C551F5A2
:10E4D00042C552F543C553F544C554F5810E456E0A
:10E4E000FF0E466E51C547F552C548F553C549F56F
:10E4F00054C54AF5180E05D0D8904A3249324832F0
:10E500004732E82EF9D7475045244F6E000E46207B
:10E51000506E50BE0FD0505004E1170E4F5CD8A083
:10E5200009D041C541F542C542F543C543F544C54F
:10E5300044F5120050BE5BD04FC545F5FF0E466E48
:10E54000FF0E476E7F0E486E000E496E456601D085
:10E5500007D049344932483247324632452EF6D741
:10E5600046C54BF547C54CF548C54DF549C54EF573
:10E570004B505114456E4C505214466E4D5053142E
:10E58000476E4E505414486E455046104710481080
:10E59000D8B4C7D751C545F552C546F553C547F55B
:10E5A00054C548F5200E05D0D8904832473246323F
:10E5B0004532E82EF9D74550D8B408D04B505126F3
:10E5C0004C5052224D5053224E5054224B1C456EFB
:10E5D0004C1C466E4D1C476E4E1C486E45505116E5
:10E5E00046505216475053164850541632D051C513
:10E5F00045F552C546F553C547F554C548F5200EB7
:10E6000005D0D8904832473246324532E82EF9D705
:10E61000456608D0000E516E000E526E000E536E0D
:10E62000000E16D0D8905134456E5234466E533495
:10E63000476E5434486E4550461047104810D8B4C1
:10E6400008D0000E516E000E526E800E536EBF0E3B
:10E65000546E51C541F552C542F553C543F554C5F5
:10E6600044F51200000E116E000E106E000E0F6EBB
:10E67000000E0E6E02D0084A092A610020F4F6F45A
:10E68000610024F4F7F4000EF86E0800F550200A3B
:10E69000D8B4F1D7F70E0A6EFF0E0B6E610020F4AE
:10E6A000F6F4610024F4F7F4000EF86E0800F5505B
:10E6B0000C6E0D6A0A500C260B500D220D500CE109
:10E6C000050E0C5CD8B008D0D6D7000E0F6E010E28
:10E6D0000E6E084A092A36D0610020F4F6F4610073
:10E6E00024F4F7F4000EF86E0800F5500A6E0B6A79
:10E6F0000B50000AD8A426D00A502B0AD8B4E9D768
:10E70000060AD8B4E2D71ED010C501F511C502F52E
:10E71000000E046E0A0E036E8DECF8F0610020F41A
:10E72000F6F4610024F4F7F4000EF86E0800F550DA
:10E73000015E000E025A300E0124106E000E0220FF
:10E74000116EC7D7D00E0A6EFF0E0B6E610020F45B
:10E75000F6F4610024F4F7F4000EF86E0800F550AA
:10E760000C6E0D6A0A500C260B500D220D5004E160
:10E770000A0E0C5CD8A0C8D70E500F10D8A40DD02C
:10E7800010C50AF511C50BF50A1E0B1E0A4A0B2A05
:10E790000AC508F50BC509F5120010C508F511C525
:10E7A00009F51200096E0950D8A404AE1AD001C5AB
:10E7B00005F502C506F503C507F504C508F5051EF0
:10E7C000061E071E081E052A000E06220722082222
:10E7D00005C50BF506C50CF507C50DF508C50EF505
:10E7E00008D001C50BF502C50CF503C50DF504C530
:10E7F0000EF50150021003100410D8A409D0000E29
:10E80000016E000E026E000E036E000E046E12000A
:10E81000960E0A6E06D00A2AD8900E320D320C32AD
:10E820000B32000E0B14056E000E0C14066E000E5B
:10E830000D14076EFE0E0E14086E0550061007101C
:10E840000810D8B40DD0E7D70A2A010E0B26000E07
:10E850000C220D220E22D8900E320D320C320B32C9
:10E86000000E0B14056E000E0C14066E000E0D1437
:10E87000076EFF0E0E14086E0550061007100810E4
:10E88000D8B407D0E1D70A06D8900B360C360D362F
:10E890000E360DBE03D0020E0A60F5D70AA00D9EFB
:10E8A000D8900A320AC505F5066A076A086A05C5DE
:10E8B00008F5076A066A056A05500B1206500C1225
:10E8C00007500D1208500E120950D8A404AE01D002
:10E8D0000E8E0BC501F50CC502F50DC503F50EC571
:10E8E00004F51200000E2814306E000E2914316E4B
:10E8F000800E2A14326E7F0E2B14336E305031107E
:10E9000032103310D8A408D0000E286E000E296EE5
:10E91000000E2A6E000E2B6E000E2C14306E000EB0
:10E920002D14316E800E2E14326E7F0E2F14336E26
:10E930003050311032103310D8A408D0000E2C6E95
:10E94000000E2D6E000E2E6E000E2F6E2BAE09D017
:10E95000286C291ED8B0292A2A1ED8B02A2A800E4F
:10E960002B562FAE09D02C6C2D1ED8B02D2A2E1E62
:10E97000D8B02E2A800E2F56000E281A000E291A03
:10E98000000E2A1A800E2B1A000E2C1A000E2D1AB9
:10E99000000E2E1A800E2F1A2C50285C2D5029584C
:10E9A0002E502A582F502B58D8B002D0D890120091
:10E9B000D8801200BFC50BF5C0C50CF5C1C50DF55B
:10E9C000C2C50EF501C50BF502C50CF503C50DF565
:10E9D00004C50EF50BC505F50CC506F50DC507F507
:10E9E0000EC508F5180E05D0D89008320732063249
:10E9F0000532E82EF9D70550096E0A6A09500A1047
:10EA0000D8A419D0D8900B34056E0C34066E0D3492
:10EA1000076E0E34086E0550061007100810D8A4B3
:10EA200005D0000E026E020E016E1200000E026E84
:10EA3000030E016E120009280A10D8A41CD00BC5C1
:10EA400005F50CC506F50DC507F50EC508F5090E4B
:10EA5000D8900536063607360836E82EF9D7055021
:10EA6000061007100810D8A402D0010E01D0000E25
:10EA7000016E026A1200000E026E040E016E120098
:10EA800001C508F502C509F503C50AF504C50BF56E
:10EA90000506D8A0060605280FE10628D8A40CD044
:10EAA000000E026E000E016E1200084A092A0A4A80
:10EAB0000B2A0506D8A00606610020F4D9F46100EF
:10EAC00024F4DAF4DF50D8B426D0610028F4F6F448
:10EAD00061002CF4F7F4000EF86E0800F550000900
:10EAE000D8B419D005500610D8B415D0610020F460
:10EAF000D9F4610024F4DAF4DF50076E610028F4E1
:10EB0000F6F461002CF4F7F4000EF86E0800F550EE
:10EB10000718D8B4CAD7610020F4D9F4610024F4EE
:10EB2000DAF4DF50076E610028F4F6F461002CF48B
:10EB3000F7F4000EF86E0800F550075C016E026AEB
:10EB4000D8A002061200033404340A6E0A50D8A476
:10EB500009D0000E016E000E026E000E036E000E54
:10EB6000046E120001C505F502C506F503C507F5DB
:10EB700004C508F5200E05D0D890083207320632B9
:10EB80000532E82EF9D70550096E038EFF0E0116E7
:10EB9000FF0E0216FF0E0316000E0416960E0A5EF6
:10EBA0000AAE0DD00A50800A970FD8A0D2D7D890BD
:10EBB00004320332023201320A3EF9D70DD01F0E61
:10EBC0000A6407D0C6D7D890013602360336043619
:10EBD0000A060A50D8A4F7D70950D8B408D0041EA2
:10EBE000031E021E016C000E02220322042201C534
:10EBF00001F502C502F503C503F504C504F51200CD
:10EC00000501C9A10AD014C50BF515C50CF512C52F
:10EC10000DF513C50EF5FDECF7F017BE05D016C5C2
:10EC20001BF517C51CF504D0000E1C6E000E1B6EE4
:10EC3000000E1A6E000E196E0CD0000E036E200E20
:10EC4000026E12C504F513C505F50CECF7F0194A70
:10EC50001A2A1B50195C1A50800A186E1C50800A20
:10EC60001858D8A0EAD70501C9B10AD014C50BF5C8
:10EC700015C50CF512C50DF513C50EF5FDECF7F035
:10EC800014C501F515C502F549ECF8F01B50012437
:10EC9000126E1C500220136E1200000E0114096E39
:10ECA000000E02140A6E800E03140B6E7F0E041405
:10ECB0000C6E09500A100B100C10D8A408D0000ECE
:10ECC000016E000E026E000E036E000E046E000E4A
:10ECD0000514096E000E06140A6E800E07140B6EE2
:10ECE0007F0E08140C6E09500A100B100C10D8A4DB
:10ECF00008D0000E056E000E066E000E076E000EA8
:10ED0000086E055001180AE10650021807E1075085
:10ED1000031804E108500418D8B402D0D8901200A7
:10ED2000D8801200000E066E04AE06D0036C041EDE
:10ED3000D8B0042A010E066E02AE06D0016C021E87
:10ED4000D8B0022A010E061A000E086E000E076ED9
:10ED500003500410D8B41CD0010E056E04D0D89016
:10ED600003360436052A04AEFAD7D890073608369B
:10ED70000350015C04500258D8A005D00350015E36
:10ED80000450025A0780D89004320332052EEDD782
:10ED90000650D8B404D0076C081ED8B0082A07C59E
:10EDA00001F508C502F51200000E066E02AE06D08F
:10EDB000016C021ED8B0022A010E066E04AE04D009
:10EDC000036C041ED8B0042A03500410D8B418D021
:10EDD000010E056E04D0D89003360436052A04AE21
:10EDE000FAD70350015C04500258D8A004D0035055
:10EDF000015E0450025AD89004320332052EF1D736
:10EE00000650D8B404D0016C021ED8B0022A01C545
:10EE100001F502C502F5120004500510D8B404D063
:10EE200004500510D8A404D00250B5ECF8F012003C
:10EE300020EE09F00450D9260550DA22DE50DE100B
:10EE4000D8B416D020EE09F00450D9260550DA22A5
:10EE500010EE03F00450E1260550E222DE50E65C9D
:10EE6000E650800A0A6EDE50800A0A58D8B01200B6
:10EE700020EE03F00450D9260550DA22DE2A000ED7
:10EE8000DD221200A7C5ABF5A8C5ACF5000EC46F16
:10EE9000000EC36F13D0A5C597F5A6C598F5AB0EA8
:10EEA000996F050E9A6FA9C59BF5AAC59CF5ADECA7
:10EEB000E9F005019751C3279851C4236100ACF6CE
:10EEC000F6F46100B0F6F7F4000EF86E0800F550A5
:10EED0000009D8A4E0D7C3C5A5F5C4C5A6F512009E
:10EEE00003C507F504C508F501C509F502C50AF50E
:10EEF0000750056E0850066E074A082A610014F490
:10EF0000F6F4610018F4F7F4000EF86E610024F4D2
:10EF1000D9F4610028F4DAF4094A0A2A360EF764B3
:10EF200003D00800F55005D0F6C4E1F4F7C4E2F4CC
:10EF3000E750DF6EDF50D8B41200DAD7000E2C1A7B
:10EF4000000E2D1A000E2E1A800E2F1A28C501F55C
:10EF500029C502F52AC503F52BC504F52CC505F511
:10EF60002DC506F52EC507F52FC508F515ECEEF0F5
:10EF700001C528F502C529F503C52AF504C52BF5F9
:10EF80001200010E076E200E01180210D8B414D022
:10EF9000F70E036EFF0E046E01C505F502C506F5FA
:10EFA0000350052604500622065004E1050E055CB8
:10EFB000D8A002D0000E076E07C501F5026A120044
:10EFC000BF0E096EFF0E0A6E07C50BF508C50CF5DE
:10EFD00009500B260A500C220C500AE11A0E0B5C49
:10EFE000D8B006D0200E0710076E0850086E120029
:10EFF00007C507F508C508F51200000E116E000ED2
:10F00000106E0BD00FC502F5036A0DC504F50EC5D1
:10F0100005F50CECF7F0104A112A10500B24D96EAC
:10F0200011500C20DA6EDF500F6E0F50D8B4120062
:10F03000E9D7BF0E036EFF0E046E01C505F502C5CC
:10F0400006F50350052604500622065006E11A0E66
:10F05000055CD8B002D0010E01D0000E016E026A2C
:10F060001200D00E036EFF0E046E01C505F502C539
:10F0700006F50350052604500622065006E10A0E46
:10F08000055CD8B002D0010E01D0000E016E026AFC
:10F09000120001C503F502C504F502D0014A022A97
:10F0A000610004F4D9F4610008F4DAF4DF50D8A464
:10F0B000F5D70350015C016E04500258026E120035
:10F0C0000150021003100410D8B408D0000E011A29
:10F0D000000E021A000E031A800E041A01C501F573
:10F0E00002C502F503C503F504C504F5120009EED7
:10F0F00000F2500EEE6AE806FDE101EEBBF1120EE1
:10F10000EE6AE806FDE10401080E5D6F000E5E6F19
:10F11000000E5F6F00019BEFEFF0015003026100F2
:10F12000CCF305F56100D0F306F501500402F3506D
:10F13000062602500302F350062605C501F506C552
:10F1400002F51200AF0EB36F050EB46F000EA56F7F
:10F15000000EA66FADC5A7F5AEC5A8F5B30EA96F95
:10F16000050EAA6F42ECF7F01200016EB7A2FED7AF
:10F17000610004F4C9F21200B7A002D0C2841100E9
:04F18000C294110024
:05FFF000EA00C000F072
:04FFF60077EFF8F0B9
:02FFFC001100F2
:020000040020DA
:10000000FFFFFFFFFFFFFFFFFFFFFFFFFFFFFFFF00
:10001000FFFFFFFFFFFFFFFFFFFFFFFFFFFFFFFFF0
:10002000FFFFFFFFFFFFFFFFFFFFFFFFFFFFFFFFE0
:10003000FFFFFFFFFFFFFFFFFFFFFFFFFFFFFFFFD0
:020000040030CA
:100000008C2FFFF79FFFFFFFFFFFFFFFFFFFFFFFAB
:10001000FFFFFFFFFFFFFFFFFFFFFFFFFFFFFFFFF0
